:020000040800F2
:10000000A80A0020890100088F100008810F00084D
:100010008D1000081F040008F713000800000000FE
:10002000000000000000000000000000771300083E
:10003000210400080000000075130008791300086F
:10004000A3010008A3010008A3010008A301000800
:10005000A3010008A3010008A3010008A3010008F0
:10006000A3010008A3010008A3010008A3010008E0
:10007000A3010008A3010008A3010008A3010008D0
:10008000A3010008A3010008A3010008A3010008C0
:10009000A3010008A3010008A3010008A3010008B0
:1000A000A3010008A3010008A3010008A3010008A0
:1000B000A3010008A3010008A3010008A301000890
:1000C000A3010008A3010008A3010008A301000880
:1000D000A3010008A3010008A3010008A301000870
:1000E000A3010008A3010008A301000800F002F822
:1000F00000F03AF80AA090E8000C82448344AAF188
:100100000107DA4501D100F02FF8AFF2090EBAE885
:100110000F0013F0010F18BFFB1A43F0010318473B
:10012000D4270000F4270000103A24BF78C878C113
:10013000FAD8520724BF30C830C144BF04680C60ED
:10014000704700000023002400250026103A28BF35
:1001500078C1FBD8520728BF30C148BF0B60704739
:100160001FB51FBD10B510BD00F0F3F81146FFF725
:10017000F7FF01F041F900F011F903B4FFF7F2FFC6
:1001800003BC00F019F900000948804709480047FE
:10019000FEE7FEE7FEE7FEE7FEE7FEE7FEE7FEE737
:1001A000FEE7FEE704480549054A064B7047000094
:1001B000F5130008ED000008A8040020A80A00209C
:1001C000A8060020A806002010B54C1084EA5304AD
:1001D00004D54042C1F1000138BF491E1B4204D57D
:1001E0005242C3F1000338BF5B1E00F03BF814F02D
:1001F000804F04D04042C1F1000138BF491E14F0C5
:10020000004F04D05242C3F1000338BF5B1E10BD43
:100210004FF0000200B5134694469646203922BF9F
:10022000A0E80C50A0E80C50B1F12001BFF4F7AFEA
:10023000090728BFA0E80C5048BF0CC05DF804EBCC
:10024000890028BF40F8042B08BF704748BF20F83A
:10025000022B11F0804F18BF00F8012B7047704738
:100260007047704753EA020C00F069802DE9F04BAB
:100270004FF00006002B1FBFB3FA83F503FA05F415
:1002800024FA05F65E4012BF1643B2FA82F502FA6E
:1002900005F4C5F120051EBF22FA05FC44EA0C0452
:1002A000203556EA044C4FEA144418BF641C4FF042
:1002B00000084FF00009904271EB030C39D300297C
:1002C00019BFB1FA81F701FA07F6B0FA80F700FA20
:1002D00007F6C7F120071EBF20FA07FC46EA0C0606
:1002E0002037B6FBF4FCA7EB0507103F07F01F0B08
:1002F000CBF120060CFA0BFB2CFA06F644BFB346F2
:100300000026202FA4BF5E464FF0000B5BEA060CD0
:1003100008BF4FF0010B19EB0B09ABFB027C48EB5C
:100320000608C01B06FB02CC0BFB03CC71EB0C01D7
:10033000C1E70B46024641464846BDE8F08B13B57F
:100340004FF000004FF00001AFF30080BDE81C400B
:100350007047754600F02CF8AE46050069465346D6
:1003600020F00700854618B020B5FFF71BFFBDE859
:1003700020404FF000064FF000074FF000084FF00C
:10038000000B21F00701AC46ACE8C009ACE8C0099D
:10039000ACE8C009ACE8C0098D46704710B504460A
:1003A000AFF300802046BDE81040FFF7E6BE000036
:1003B000004870474804002001491820ABBEFEE702
:1003C000260002007047000070B50446006881688E
:1003D000C943C90717D1816821F00101816000F08C
:1003E00097FA05460AE000BF00F092FA401B022887
:1003F00004D920688068C043C00706D020688068A0
:10040000C043C007F0D0002070BDA06A40F01000CB
:10041000A062E06A40F00100E062012070BDFEE7EA
:10042000704772B6FEE70000F8B50024009490F81B
:1004300024202546012A12D0012280F824204A686F
:100440001F23072A0DD20668776B521E02EB820229
:1004500093409F430B6893401F43776319E002204A
:10046000F8BD06680D2A0AD2376BD21F02EB820252
:1004700093409F430B6893401F43376309E0F76A3B
:100480000D3A02EB820293409F430B6893401F4357
:10049000F7620A68072306680A2A0AD3F7680A3A45
:1004A00002EB420293409F438B6893401F43F760E7
:1004B00008E0376902EB420293409F438B68934008
:1004C0001F4337610A68102A01D0112A20D1124B2C
:1004D00002689A4217D193681B0219D4936843F4B7
:1004E000000393600968102912D10C490C4A09686D
:1004F000B1FBF2F101EB8101490000E0491E0091DE
:100500000029FBD104E0816A41F0200181620124CD
:1005100080F824502046F8BD002401400C00002043
:1005200040420F002DE9F0414FF0000704003D4626
:100530007ED0A06A002628B9E66284F824602046AE
:1005400000F07EF82046FFF73FFFA16AC90600D4FD
:1005500020B1A06A40F01000A06269E0A16A21F415
:10056000885141F00201A1626268E169237B0A437C
:1005700047EA43010A43A1684FF48077B94209D0A2
:10058000012907D05FF0000194F814C0BCF1010FFD
:1005900002D00AE03946F7E7F3B1A36A43F020033B
:1005A000A362E36A43F00103E3622368D3F804C063
:1005B0002CF4694C4CEA010CC3F804C021688B6828
:1005C000DFF870C003EA0C0313438B60A168B942E3
:1005D0000BD0012909D00CE0DFF85CC0A3690CEB5B
:1005E00043330B4343F40061DFE7218A0D05A5F592
:1005F00080152168CB6A23F470032B43CB622168FA
:1006000089680E4B1940914208D1E662A16A21F037
:10061000020141F00101A162BDE8F081A06A20F071
:10062000020040F01000A062E06A40F00100E062C9
:100630000120F1E7FDF7E1FF00E0FFFFFE0E1FFFE5
:1006400000B585B0002100910191029103910068ED
:100650000E49884218D10E48816941F400718161C8
:10066000816901F400710491816941F004018161A3
:100670008069694600F00400049040200090032047
:100680000190044800F04EF805B000BD0024014080
:1006900000100240000801402DE9F041044600F03E
:1006A00037F9064600F0B6FA4FF47A77B0FBF7F266
:1006B00000254FF0FF382B4640462946FFF784FDC2
:1006C000201A75EB010002DA15480078044434441E
:1006D00000F0A0FAB0FBF7F22B4640460021FFF7EE
:1006E00073FD001BA94109DA00F094FAB0FBF7F2A0
:1006F0002B4640460021FFF767FD241AB44205D976
:1007000000F006F9A042FBD3BDE8F08100F000F94B
:10071000A042FBD800F0FCF8A042FBD3F4E70000B5
:10072000000000202DE9F84FDFF8B8910024A9F16E
:10073000040B23460F2709F1040AABF1040EC9E0AC
:100740000125A5402A40AA427DD1674ED1F804C0B8
:10075000ACEB0608B44532D014DCBCF1030F3AD040
:1007600009DCBCF1000F2AD0BCF1010F1CD0BCF198
:10077000020F31D11DE0BCF1110F17D0BCF1120FE7
:100780002AD119E0B8F5881F19D006DCB8F5803FEA
:1007900015D0B8F5801F1FD111E0B8F5001F0ED09D
:1007A000B8F5041F18D10AE0CB6815E0CB681B1D13
:1007B00012E0CB6808330FE0CB680C330CE08B6899
:1007C0002BB1012B4FF0080303D0456104E0042353
:1007D00002E0056100E00023FF2A01D8064601E09F
:1007E00000F104064FEA840501D9A5F12005D6F8E9
:1007F000008007FA05FC28EA0C0803FA05F548EA28
:100800000508C6F800804D68ED0062D5374DAE6929
:1008100046F00106AE61AD6924F0030605F001055E
:100820000095334D06EB050CDCF80850A607360F93
:1008300007FA06F825EA0805DFF8B880404503D135
:100840004FF0000817E044E0DFF8AC80404502D1EB
:100850004FF001080FE0DFF8A480404502D14FF0CF
:10086000020808E0DFF89880404502D14FF0030805
:1008700001E04FF0040808FA06F848EA0508CCF849
:1008800008804D68D9F80060ED024D4601D5164349
:1008900000E096432E604D68DAF80060AD025546E0
:1008A00001D5164300E096432E604D68DBF80060EA
:1008B000AD035D4601D5164300E096432E604D68BA
:1008C000DEF80060ED03754601D5164300E096435F
:1008D0002E60641C0D682A46E5407FF431AFBDE808
:1008E000F88F0000080401400000111000100240C1
:1008F0000000014000080140000C014000100140D0
:10090000001401400AB1016170470904FBE70000CF
:1009100010B500F07FF94FF47A71B0FBF1F00249A5
:100920004968B1FBF0F010BD001000E0024881689A
:10093000027811448160704700000020074810B51C
:10094000016841F010010160032000F045F80F201C
:1009500000F006F800F022F8002010BD0020024050
:100960000A4810B5016841F0807101600848002113
:100970004160016841F00101016000F04BF9054957
:10098000B0FBF1F004494860002010BDFCED00E030
:10099000001000E040420F00100000200C4808B595
:1009A000816941F001018161816901F001010091DA
:1009B000C16941F08051C161C06900F08050009070
:1009C0000448416821F0E06141F00071416008BDD8
:1009D0000010024000000140064900F007020868CC
:1009E0004FF6FF03184040EA0220034A1043086014
:1009F000704700000CED00E00000FA052DE9F84317
:100A000005460078354CC00754D0E0690026C00088
:100A100008D4E06940F08050E061E069012600F010
:100A2000805000902E480168C90512D401688046A4
:100A300041F480710160FFF76BFF074605E000BFDE
:100A4000FFF766FFC01B642823D8D8F80000C00554
:100A5000F6D5206A10F4407021D0A98801F44071C5
:100A600081421CD0206A1F49012220F440700A6094
:100A700000220A602062C00711D0FFF749FF074635
:100A800041F2883808E000BFFFF742FFC11B414533
:100A900002D90320BDE8F883206A8007F4D5206AD4
:100AA000696820F44070084320621EB1E06920F0BC
:100AB0008050E0612878800705D56068A96820F437
:100AC0004040084360602878C00605D56068E96842
:100AD00020F48000084360600020DBE70010024043
:100AE00000700040400442422DE9F0470F460500E7
:100AF00061D0434E306800F00700B84209D2306838
:100B000020F0070038433060306800F00700B8423A
:100B100051D128683B4C810712D5400703D5606846
:100B200040F4E06060602878000703D5606840F416
:100B3000605060606068A96820F0F0000843606061
:100B40002878C00728D06868012810D021680228BA
:100B500010D0890700292EDA616821F003010143D2
:100B60006160FFF7D5FE804641F288390DE02168CB
:100B70008903EFE78901EDE7FFF7CAFEA0EB080163
:100B8000494502D90320BDE8F0876068696800F034
:100B90000C00B0EB810FEFD1306800F00700B842D5
:100BA0000BD9306820F0070038433060306800F01F
:100BB0000700B84201D00120E5E72878400705D5B5
:100BC0006068E96820F4E060084360602878000706
:100BD00006D56068296920F4605040EAC100606071
:100BE00000F018F86168084AC1F30311515CC8406D
:100BF0000649086006480068FFF7B2FE0020C2E719
:100C000000200240001002403E1400080C000020AA
:100C1000040000200E4A51680E4801F00C03042B1A
:100C200011D0082B0FD10C48C1F38343C903C05C1A
:100C30000AD55168084AC1F34041921E515C054AE9
:100C40005043B0FBF1F0704704494843704700003F
:100C50000010024000127A002E14000800093D0026
:100C60002DE9F84F040070D02078C04DC00749D05E
:100C70006868C0F38100012807D06868C0F381006C
:100C8000022809D16868C00306D52868800339D5D1
:100C900060680028E7D035E06068B0F5803F0BD091
:100CA00010B1B0F5A02F11D0286820F48030286052
:100CB000286820F4802002E0286840F48030286012
:100CC000606890B1FFF724FE06460AE0286840F409
:100CD00080202860F0E700BFFFF71AFE801B642821
:100CE00073D828688003F7D50CE0FFF711FE06469D
:100CF00005E000BFFFF70CFE801B6428F0D82868D1
:100D00008003F7D420789A4E80074FF001094FF006
:100D1000000839D5686810F00C0F07D06868C0F378
:100D20008100022809D16868C00306D428688007BA
:100D300014D52069012808D110E02069B0B1C6F8A7
:100D40000090FFF7E5FD074605E00AE1FFF7E0FD4B
:100D5000C01B0228C4D828688007F7D528686169B5
:100D600020F0F80040EAC10028600DE0C6F80080DD
:100D7000FFF7CEFD074604E0FFF7CAFDC01B0228BF
:100D800023D828688007F7D4207800072CD5794825
:100D9000A169D9B1C0F80090FFF7BAFD074604E099
:100DA000FFF7B6FDC01B02280FD8686A8007F7D589
:100DB00071484FF4FA510068B0FBF1F0009000BFA9
:100DC0000098411E0091FAD20EE080E0C0F8008049
:100DD000FFF79EFD074604E0FFF79AFDC01B0228BF
:100DE00075D8686A8007F7D42078400760D5E8692D
:100DF0000027C00008D4E86940F08050E861E86945
:100E0000012700F0805000905C480168C90513D4A8
:100E10000168834641F480710160FFF779FD8246E5
:100E200006E000BFFFF774FDA0EB0A0064284ED86F
:100E3000DBF80000C005F5D5E06801280AD008B14C
:100E4000052813D0286A20F001002862286A20F0C3
:100E5000040002E0286A40F001002862E06841F2E4
:100E6000883B98B1FFF754FD82460BE0286A40F0BA
:100E700004002862EEE700BFFFF74AFDA0EB0A017D
:100E800059455AD8286A8007F6D50CE0FFF740FD8F
:100E9000824605E0FFF73CFDA0EB0A0159454CD81E
:100EA000286A8007F6D41FB1E86920F08050E86115
:100EB000E06988B36968C1F38101022944D002283E
:100EC000C6F8608004D0FFF723FD044638E034E024
:100ED000FFF71EFD074604E0FFF71AFDC01B0228BE
:100EE0002BD828688001F7D4206AB0F5803F05D15F
:100EF0006868A16820F4003008436860D4E90801FC
:100F00000843696821F4741108436860C6F860906A
:100F1000FFF7FEFC044606E025E000BFFFF7F8FC03
:100F2000001B022809D828688001F7D51BE000BF04
:100F3000FFF7EEFC001B022802D90320BDE8F88F62
:100F400028688001F4D40EE00128F7D06868226A8E
:100F500000F48031914204D1616A00F4701088423B
:100F600001D00120EAE70020E8E70000001002407D
:100F700000004242800442420C0000200070004009
:100F8000FEE700003EB5002411480094019402944D
:100F90000E498460016004730475012505614FF4F6
:100FA00060214460C161FFF7BDFA08B1FFF739FA6B
:100FB0000620CDE90005694602940548FFF734FA9A
:100FC000002801D0FFF72DFA3EBD000000240140AB
:100FD000180000202DE9F04385B000242848009433
:100FE000019402940394816941F020018161816937
:100FF00001F020010491816941F00401816181695E
:1010000001F004010491816941F008018161806966
:10101000012200F00800DFF86C80D5030490294617
:101020004046FFF76FFCDFF860904FF44E770122E7
:1010300039464846FFF766FC002240214846FFF744
:1010400061FC0095032601250396CDE9015469460C
:101050004046FFF767FB00970396CDE901546946C8
:101060004846FFF75FFB4020CDE900050220CDE9AF
:10107000024069464846FFF755FB05B0BDE8F083DE
:101080000010024000080140000C0140FEE7FEE7AE
:1010900030B40021084B0A465FF0000003EBC004A7
:1010A000401CC0B262548028F8D3491CC9B2082938
:1010B000F2D330BC00F09AB84800002010B57F2869
:1010C00016D83F2914D80723A3EBD10301F0070159
:1010D000C1F107040121A140064CDBB204EBC000C2
:1010E000002AC25CC9B201D00A4300E08A43C2545C
:1010F00010BD00004800002010B53B4C0022082124
:101100002046FFF7FFFB6420FFF7C6FA0122082103
:101110002046FFF7F7FB0021AE2000F0F5F8002194
:10112000D52000F0F1F80021502000F0EDF800216A
:10113000A82000F0E9F800213F2000F0E5F80021A8
:10114000D32000F0E1F80021084600F0DDF800218E
:10115000402000F0D9F800218D2000F0D5F80021C2
:10116000142000F0D1F80021202000F0CDF800215B
:10117000022000F0C9F80021A12000F0C5F80021EC
:10118000C02000F0C1F80021DA2000F0BDF80021F5
:10119000122000F0B9F80021812000F0B5F80021FC
:1011A000EF2000F0B1F80021D92000F0ADF80021C7
:1011B000F12000F0A9F80021DB2000F0A5F80021C3
:1011C000302000F0A1F80021A42000F09DF80021BB
:1011D000A62000F099F80021AF2000F095F8BDE8B6
:1011E0001040FFF755BF0000000C014070B5114ED4
:1011F000002400BF04F1B000C0B2002100F084F868
:101200000021084600F080F80021102000F07CF852
:101210005FF0000506EBC5000121005D00F074F8E9
:101220006D1CEDB2802DF5D3641CE4B2082CE1D323
:1012300070BD0000480000202DE9FF4F203A1F46F6
:101240000C46894602F0FF0A0025DDF834B032E092
:101250000C2F09D01A4901EB0A104FF00008465D27
:10126000300607D55A4609E016490AEB4A0001EB59
:101270008000F2E7BBF1000F12D000222146009857
:10128000FFF71CFF7006641C060EE4B2A4EB090015
:10129000B84207D100984C46401CC0B2009008E00C
:1012A0000122EBE708F1010000F0FF08B8F1080F98
:1012B000D6D36D1CEDB2BD42CAD3BDE8FF8F00008E
:1012C000C21800084E140008F8B516460D4604462C
:1012D000012714E07A2C02D900241035EDB23A2D02
:1012E00003D900242546FFF7D3FE009732780C235C
:1012F00029462046FFF7A0FF0834E4B2761C307878
:101300000028E7D1F8BD00002DE9F041DFF85C804E
:1013100005464FF4004709B1012200E0002239469A
:101320004046FFF7EFFA124E0024002220213046FB
:10133000FFF7E8FA280601D5012200E0002210217B
:101340003046FFF7DFFA012220213046FFF7DAFAB4
:101350006806641C050EE4B2082CE6D33946404604
:10136000BDE8F0410122FFF7CDBA000000080140BE
:10137000000C014070477047FFF7D8BA30B593B002
:1013800028216846FEF744FF14210AA8FEF740FF13
:10139000002501200F9510951195010412958DE8F7
:1013A000230004904FF4E010CDE9081002240794C4
:1013B0006846FFF755FC08B172B6FEE70AA90F2090
:1013C00081E831004FF48060CDE90D0502210AA8C3
:1013D000FFF78AFB08B172B6FEE74FF400401190A8
:1013E0000F940FA8FFF70AFB002801D072B6FEE7A2
:1013F00013B030BD7047FEE7FFF7A0FAFFF7BEFF5E
:10140000FFF7E8FDFFF7BEFDFFF776FE00F002F8FC
:10141000FCE7000010B5002103A20846FFF754FFC7
:10142000BDE81040FFF7E2BE444D50000102020348
:101430000405060708090A0B0C0D0E0F101000001A
:101440000000000000000102030406070809000074
:1014500000000000000000000000000000003F400D
:10146000000000000000000030004000300040009C
:10147000000009000BC03D000BC03D00090018C072
:1014800024407FE0224031800000180024C01B006F
:101490000D803240018003801C4027401C800740A3
:1014A000004010006000000000000000000000008C
:1014B000000000001F80204040200000402020400D
:1014C0001F8000000000090006001F8006000900C0
:1014D0000000040004003F8004000400000000102D
:1014E0000060000000000000000004000400040090
:1014F00004000400000000000040000000000000A4
:101500000000002001C006003800400000001F80DD
:101510002040204020401F800000000010403FC0BD
:1015200000400000000018C0214022402440184024
:10153000000010802040244024401B800000020056
:101540000D0011003FC0014000003C8024402440B9
:101550002440238000001F80244024403440038026
:1015600000003000200027C03800200000001B8051
:101570002440244024401B8000001C0022C0224044
:1015800022401F8000000000000008400000000012
:1015900000000000000004600000000000000000E7
:1015A00004000A00110020804040090009000900E1
:1015B00009000900000000004040208011000A00DE
:1015C00004001800200023402400180000001F80A1
:1015D0002040274029401F400000004007C039003C
:1015E0000F0001C0004020403FC0244024401B8029
:1015F00000001F802040204020403080000020401C
:101600003FC0204020401F80000020403FC02440B9
:101610002E4030C0000020403FC024402E0030004B
:1016200000000F0010802040224033800200204044
:101630003FC0040004003FC02040204020403FC085
:101640002040204000000060202020203FC02000DB
:10165000200020403FC024400B0030C020402040EC
:101660003FC020400040004000C03FC03C0003C0DD
:101670003C003FC0000020403FC00C4023003FC062
:1016800020001F802040204020401F80000020407C
:101690003FC024402400180000001F80214021404A
:1016A00020E01FA0000020403FC02440260019C0B9
:1016B000004018C024402440224031800000300007
:1016C00020403FC020403000000020003F8000400C
:1016D00000403F80200020003E0001C0070038008D
:1016E0002000380007C03C0007C038000000204040
:1016F00039C0060039C0204000002000384007C033
:10170000384020000000304021C02640384020C032
:101710000000000000007FE04020402000000000AA
:1017200070000C00038000400000000040204020BA
:101730007FE00000000000002000400020000000CA
:101740000000001000100010001000100010000039
:101750000000400000000000000000000280054082
:10176000054003C0004020003FC004400440038007
:101770000000000003800440044006400000000018
:101780000380044024403FC0004000000380054027
:10179000054003400000000004401FC024402440D6
:1017A0002000000002E005500550065004202040B3
:1017B0003FC00440040003C000400000044027C0B4
:1017C00000400000000000100010041027E000009E
:1017D000000020403FC00140070004C004402040FA
:1017E00020403FC000400040000007C0040007C088
:1017F000040003C00000044007C00440040003C00C
:1018000000400000038004400440038000000410F6
:1018100007F00450044003800000000003800440EF
:10182000045007F00010044007C002400400040008
:101830000000000006400540054004C00000000014
:1018400004001F80044000400000040007800040A6
:10185000044007C000400400070004C001800600E7
:101860000400060001C0070001C00600000004409B
:1018700006C0010006C0044000000410071004E088
:101880000180060004000000044005C0064004403A
:1018900000000000000004007BE040200000000089
:1018A00000000000FFF000000000000040207BE08E
:1018B00004000000000040008000400020002000E4
:1018C00040000000000000000000000000000000D8
:1018D00000000000000000001FCC000C0000000011
:1018E00000000000080030006000080030006000C8
:1018F0000000022003FC1E20022003FC1E20022008
:10190000000000000E1811043FFF10840C78000046
:1019100000000F0010840F3800C00778188400788A
:10192000000000780F8410C411240E9800E4008495
:1019300000080800680070000000000000000000BF
:10194000000000000000000007E01818200440021A
:101950000000000040022004181807E0000000000A
:1019600000000240024001800FF00180024002406E
:1019700000000080008000800FF800800080008060
:1019800000000001000D000E00000000000000003B
:101990000000000000800080008000800080008047
:1019A00000800000000C000C00000000000000009F
:1019B000000000000006001800600180060018000A
:1019C0002000000007F0080810041004080807F0C1
:1019D00000000000080408041FFC000400040000CC
:1019E000000000000E0C10141024104411840E0C82
:1019F000000000000C1810041104110412880C706F
:101A00000000000000E00320042408241FFC002440
:101A1000000000001F981084110411041088107039
:101A20000000000007F008881104110418880070F5
:101A3000000000001C00100010FC13001C0010002F
:101A4000000000000E3811441084108411440E3838
:101A5000000000000700088C10441044088807F0BC
:101A60000000000000000000030C030C0000000058
:101A7000000000000000000101060000000000005E
:101A8000000000000080014002200410080810043B
:101A90000000022002200220022002200220022058
:101AA000000000001004080804100220014000801B
:101AB000000000000E001200100C106C10800F00CF
:101AC000000003E00C1813E4142417C4082807D0FE
:101AD00000000004003C03C41C40074000E4001C5C
:101AE000000410041FFC1104110411040E8800707E
:101AF000000003E00C1810041004100410081C105F
:101B0000000010041FFC100410041004080807F063
:101B1000000010041FFC1104110417C4100408185D
:101B2000000010041FFC1104110017C01000080071
:101B3000000003E00C181004100410441C7800404E
:101B4000000010041FFC10840080008010841FFC23
:101B500010040000100410041FFC10041004000006
:101B6000000000030001100110011FFE1000100012
:101B7000000010041FFC110403801464181C1004DE
:101B8000000010041FFC1004000400040004000CFA
:101B9000000010041FFC1F0000FC1F001FFC1004AD
:101BA000000010041FFC0C04030000E010181FFCD0
:101BB000100007F00808100410041004080807F0CB
:101BC000000010041FFC10841080108010800F0093
:101BD000000007F0081810241024101C080A07F24F
:101BE000000010041FFC1104110011C011300E0C74
:101BF000000400000E1C11041084108410441C38D2
:101C000000001800100010041FFC10041000180041
:101C1000000010001FF810040004000410041FF856
:101C2000100010001E0011E0001C007013801C004A
:101C300010001FC0103C00E01F0000E0103C1FC05F
:101C400000001004180C163401C001C01634180C22
:101C5000100410001C00130400FC13041C001000EE
:101C600000000804101C1064108413041C041018D5
:101C700000000000000000007FFE40024002400221
:101C80000000000030000C0003800060001C000316
:101C9000000000004002400240027FFE0000000001
:101CA0000000000000002000400040004000200034
:101CB000000000010001000100010001000100011D
:101CC0000001000040004000200000000000000073
:101CD000000000000098012401440144014400FC7C
:101CE000000410001FFC008801040104008800703B
:101CF0000000000000700088010401040104008855
:101D000000000000007000880104010411081FFC9D
:101D10000004000000F8014401440144014400C8EB
:101D200000000000010401040FFC11041104110063
:101D30001800000000D601290129012901C9010666
:101D4000000010041FFC008401000100010400FCDD
:101D5000000400000104190419FC00040004000040
:101D600000000000000300010101190119FE00003C
:101D7000000010041FFC0024004001B4010C010409
:101D800000000000100410041FFC00040004000008
:101D90000000010401FC0104010001FC0104010038
:101DA00000FC010401FC008401000100010400FCAE
:101DB0000004000000F8010401040104010400F81B
:101DC0000000010101FF008501040104008800708A
:101DD000000000000070008801040104010501FFFB
:101DE00000010104010401FC0084010401000180E0
:101DF0000000000000CC01240124012401240198EA
:101E0000000000000100010007F8010401040000C7
:101E10000000010001F8000400040004010801FCB6
:101E20000004010001800170000C001001600180BD
:101E3000010001F0010C003001C00030010C01F084
:101E4000010000000104018C00740170018C010488
:101E50000000010101810171000E00180160018084
:101E6000010000000184010C013401440184010CD3
:101E70000000000000000000000001003EFC4002E5
:101E800040020000000000000000FFFF0000000012
:101E900000000000400240023EFC01000000000083
:101EA0000000000060008000800040004000200032
:101EB0002000404281FE00000121D2140814E201FA
:101EC0000000080808FF0904191111977111111574
:101ED0001900000000000000FF000000008060000A
:101EE00000004040404040407F4040424140404030
:101EF00040000106F840404040FE40404241FE00A4
:101F0000000000007F444444447F444444447F0034
:101F10000000000106F88080808080808080C00002
:101F200000000000001F10109070101010101F0013
:101F30000000404281FE00000121D2140814E20199
:101F40000000080808FF09041911119771111115F3
:101F500019008080FE848A6418E422A2A2FAA2A258
:101F60002200020CF72424012739082A2AFF2A3EDE
:101F700008004080FE0808FC0106F89090FC929151
:101F8000FE002021273A2223040817E424272C34BA
:101F90000700000000FC09120418E000E018040229
:101FA0000100020242330000000000FF00000000B8
:101FB00000000001020CF00000000000FF00000023
:101FC0000000014141417F41414141417F41414147
:101FD00001000244A810688400007F424242427F10
:101FE000000008080FF8080F0002071AE2020A06AC
:101FF0000300000000FF22222222222222FF0000F2
:1020000000000000001F113151911111111F00003B
:10201000000020C000FF0082221A8272061AE2022B
:10202000020008080BFF090A040A32C2320A04023D
:1020300002000102040830C00000FC020202020E8D
:1020400000000002424242437E42434242420202B8
:1020500000004241FE8222A4A8B0A07FB0A8A4A2A2
:1020600022000808FF080907F49497909794F40752
:102070000000800000FF00000000FF101010101092
:1020800000000001061FE0020CF01F1111111110D9
:102090001000106080FF806081010202E40830C0FF
:1020A00000002424257FC44400031C00FF00100806
:1020B0000600020418E0007F4242424242427F0092
:1020C00000000000003F24242424444444C4440469
:1020D0000400000204F80402FA1222028242A21A48
:1020E0000200020242330000FF9292939292FE019C
:1020F0000000003E0202020202FE02020202023F51
:10210000000000003E02020202FF020202023F0043
:102110000000020202FE020202FE020202020202AB
:102120000200004040434040407F41414141414026
:102130000000408000FF0282828282FE82828282D0
:102140000200101011131C30D010101710101010B6
:102150001000000000FF22222222222222FF000083
:1021600000000000001F113151911111111F0000DA
:10217000000020C000FF0082221A8272061AE202CA
:10218000020008080BFF090A040A32C2320A0402DC
:10219000020000001A1C0000000000000000000007
:1021A000000000000000000000000000000000002F
:1021B0000000106080FF806081010202E40830C0EE
:1021C00000002424257FC44400031C00FF001008E5
:1021D0000600020418E0007F4242424242427F0071
:1021E00000000000003F24242424444444C4440448
:1021F0000400008181828CF0808080FE8181818F4B
:102200000000083020242424A4642424242420282A
:1022100030000106F8000804F8010284681864829E
:102220001F0000001F111111111010FF109050130A
:102230001000101810FF202000FF4242FE4242FF13
:102240000000131DF1171111000F0808FF08080FF7
:1022500000000106F890909090FE90909291FE0000
:10226000000004081724E4242427242C3404070045
:102270000000000204F80412224282FA8242221272
:1022800002000202423300202F2929FF29292F2092
:102290000000020CF1012132AAA4A4A4AA32010177
:1022A000010000003F2424243FA464243F2424246C
:1022B0002000000000FF22222222222222FF000012
:1022C00000000000001F113151911111111F000079
:1022D000000020C000FF0082221A8272061AE20269
:1022E000020008080BFF090A040A32C2320A04027B
:1022F0000200008181828CF0808080FE8181818F4C
:102300000000083020242424A46424242424202829
:1023100030000106F8000804F8010284681864829D
:102320001F0000001F111111111010FF1090501309
:1023300010008080FE848800FF9292929292FF00AB
:102340000000020CF724261212FE121212FE1212C4
:1023500002000000FE042921222428F02824222142
:102360002100024233000001794949494949790174
:102370000000800000FF0000000000C030080402E0
:102380001F000001061FE0040404FE050888680819
:1023900008004080FE0808FC001010101012110206
:1023A000FC002021273A222300404F4141417F0178
:1023B00001000000F810101010FE11111111F901A8
:1023C0000F0000001F11111111FF111111111F0039
:1023D00000000106F80202020202FE0202221A02B4
:1023E000020000007F40414141415F414141414184
:1023F0004000000204F80402028202120AF2020201
:1024000002000202423300101211101010FF1010CF
:102410001000800000FF0000FF02040082710C0227
:102420001F000001061FE0003F2121217F41C14123
:1024300001000000FF000181A29488F48282818162
:10244000010001061FE02027242424FF2424242740
:10245000200000FF48484A49FE00007E111121413A
:102460000700103352921252331800FE111121410D
:1024700007000001020CF00000000000FF00000057
:102480000000014141417F41414141417F41414182
:102490000100818182828488B0C0B0888482828178
:1024A0008100000008886808080F080828C808008C
:1024B0000000818182828488B0C0B0888482828159
:1024C0008100000008886808080F080828C808006C
:1024D000000000FF001020408804F800000201FE08
:1024E0000000001F8044044444455F444444407F4E
:1024F00000001018122122FC00FE0A126282621AE9
:102500000200405F41417F01007F404846414658FC
:102510004000083CC808281D020C7080020102FC23
:102520000000022223222222020808FF0808080FC6
:10253000000044E644484848020204C83028448267
:102540001F00040C35C60418010909FF0992521234
:102550000200020CF1010202C42810284482020188
:10256000010000003F2424272424444444C546009D
:102570000000202241FE804141526AC4444A724117
:102580004000080808FF080A222AA66322262A22F9
:1025900002001018122122FC00FE0A126282621A46
:1025A0000200405F41417F01007F4048464146585C
:1025B0004000083CC808281D020C7080020102FC83
:1025C0000000022223222222020808FF0808080F26
:1025D0000000202241FE800001F1020CF00804F30B
:1025E0000000080808FF080900037A4A4A4A7A03EB
:1025F0000000101810E0202810204080FF0000C0CC
:102600003000040404FF0404202020212738212066
:10261000200044E644484A1CE0FF90FE90FC91FFF5
:102620000000040C35C60C003F24A4642424243C80
:1026300000004080FE0808FC00101010101211026B
:10264000FC002021273A222300404F4141417F01D5
:10265000010010102F2949498F00804F4929291F57
:102660001000010179494949790701794D4B4979B0
:102670000100202241FE800001F1020CF00804F369
:102680000000080808FF080900037A4A4A4A7A034A
:102690000000101810E0202810204080FF0000C02B
:1026A0003000040404FF04042020202127382120C6
:1026B00020000000F810101010FE11111111F90186
:1026C0000F0000001F11111111FF111111111F0036
:1026D000000020207E820CF004C89281FE8090C809
:1026E000040008064031007F404F4A5A6A4A4A4F68
:1026F000400008102040800000FF000000804030B3
:102700000000004040404041424F70424140404044
:102710000000106080FF00C1062026312D2123E833
:1027200006002424257FC544102949C94959690F49
:10273000000001020478040202FE22222222220268
:102740000200083022222222A263222222222228F0
:10275000300020207E80027E42427E427E42427EC7
:1027600002000806403100007F49494949497F007D
:102770000000020CF1012132AAA4A4A4AA32010192
:10278000010000003F2424243FA464243F24242487
:102790002000000204F80402028202120AF202027D
:1027A00002000202423300101211101010FF10102C
:1027B0001000007F40405E52525252525E40417FB4
:1027C0000000202020202F29A96929292F2020203E
:1027D00020000000F810101010FE11111111F90165
:1027E0000F0000001F11111111FF111111111F0015
:1027F000000020C000FF00C106F8000000FC02023B
:102800001E0008080BFF0908007F4040407F0000C1
:10281000000044E644484848020204C83028448284
:102820001F00040C35C60418010909FF0992521251
:102830000200202241FE804141526AC4444A724152
:102840004000080808FF080A222AA66322262A2236
:1028500002008080FE848800FF9292929292FF0094
:102860000000020CF724261212FE121212FE12129F
:1028700002001020C000000201FE000000000080E5
:10288000700000000007000000FF000000040201CB
:10289000000010109090909090FF90909090901069
:1028A0001000001011121418F01710101010101052
:1028B0000000020202FE020202FE02020202020204
:1028C0000200004040434040407F4141414141407F
:1028D000000000007C40404040FF404048447800F9
:1028E000000004181057351515F515153557101437
:1028F0001800000014290008000000201800000043
:10290000280100082C29000818000020900A000067
:102910004401000801000000100000000000000059
:0C2920000024F400000000000000000093
:04000005080000ED02
:00000001FF
