:020000040800F2
:1000000028080020A10100085B230008E51D000866
:1000100059230008BF100008DF230008000000007B
:100020000000000000000000000000005F23000846
:10003000E5120008000000005D23000861230008AD
:10004000BB010008BB010008BB010008BB010008A0
:10005000BB010008BB010008BB010008BB01000890
:10006000BB010008BB010008BB010008BB01000880
:10007000BB010008BB010008BB010008BB01000870
:10008000BB010008BB010008BB010008BB01000860
:10009000BB010008BB010008BB010008BB01000850
:1000A000BB010008BB010008BB010008BB01000840
:1000B000BB010008BB010008BB010008BB01000830
:1000C000BB010008BB010008BB010008BB01000820
:1000D000BB010008BB010008BB010008BB01000810
:1000E000BB010008BB010008BB01000800F002F8DA
:1000F00000F047F80AA090E8000C82448344AAF17B
:100100000107DA4501D100F03CF8AFF2090EBAE878
:100110000F0013F0010F18BFFB1A43F0010318473B
:100120003851000058510000103A24BF78C878C1F7
:10013000FAD8520724BF30C830C144BF04680C60ED
:10014000704700000023002400250026103A28BF35
:1001500078C1FBD8520728BF30C148BF0B60704739
:10016000642900F0A180002070471FB59DE80300BE
:1001700000F050FD00F056FA1FBD10B500F0BBFABC
:1001800010BD00F023FB1146FFF7EFFF03F078F8F6
:1001900000F012FD03B4FFF7F0FF03BC00F0CCFE4B
:1001A0000948804709480047FEE7FEE7FEE7FEE70B
:1001B000FEE7FEE7FEE7FEE7FEE7FEE70448054947
:1001C000054A064B70470000DD230008ED000008DB
:1001D00028020020280800202804002028040020ED
:1001E00010B54C1084EA530404D54042C1F100011B
:1001F00038BF491E1B4204D55242C3F1000338BF29
:100200005B1E00F0EBF814F0804F04D04042C1F1C7
:10021000000138BF491E14F0004F04D05242C3F110
:10022000000338BF5B1E10BD0FB4044910B503AA0C
:10023000029800F0A3F910BC5DF814FB1C0100202B
:100240002DE9F0410E460446002020622046E16878
:10025000884730B3252805D0D4E901219047206A8A
:10026000401CF2E7E168204600278847050018D0C7
:10027000A5F14100192802D820354FF40067324615
:10028000294620462760FFF76BFF40B1012804D0C4
:10029000F61D26F007060836D8E7361DD6E72846AD
:1002A000DAE7206ABDE8F0812DE9F0410646002436
:1002B00010687529314616A510D0AFF300800028CC
:1002C00002DA404213A507E031688A0701D512A57A
:1002D00002E0490704D511A5012401E0AFF3008035
:1002E00000210A2206F1240709E0B0FBF2FCB0FB72
:1002F000F2F302FB1C00303078541846491C0028E9
:10030000F3D123462A463046BDE8F04100F0DDB87F
:10031000000000002D0000002B0000002000000065
:1003200040EA010310B59B070FD1042A0DD310C872
:1003300008C9121F9C42F8D020BA19BA884201D9C4
:10034000012010BD4FF0FF3010BD1AB1D30703D00C
:10035000521C07E0002010BD10F8013B11F8014BC2
:100360001B1B07D110F8013B11F8014B1B1B01D1DE
:10037000921EF1D1184610BD02F0FF0343EA03229A
:1003800042EA024200F00EB94FF0000200B51346F7
:1003900094469646203922BFA0E80C50A0E80C50A5
:1003A000B1F12001BFF4F7AF090728BFA0E80C5056
:1003B00048BF0CC05DF804EB890028BF40F8042B4F
:1003C00008BF704748BF20F8022B11F0804F18BFBC
:1003D00000F8012B704770477047704753EA020CD2
:1003E00000F069802DE9F04B4FF00006002B1FBF95
:1003F000B3FA83F503FA05F424FA05F65E4012BF5A
:100400001643B2FA82F502FA05F4C5F120051EBFC3
:1004100022FA05FC44EA0C04203556EA044C4FEA63
:10042000144418BF641C4FF000084FF000099042BC
:1004300071EB030C39D3002919BFB1FA81F701FA26
:1004400007F6B0FA80F700FA07F6C7F120071EBFDB
:1004500020FA07FC46EA0C062037B6FBF4FCA7EBB3
:100460000507103F07F01F0BCBF120060CFA0BFB22
:100470002CFA06F644BFB3460026202FA4BF5E46E2
:100480004FF0000B5BEA060C08BF4FF0010B19EBB5
:100490000B09ABFB027C48EB0608C01B06FB02CC39
:1004A0000BFB03CC71EB0C01C1E70B460246414646
:1004B0004846BDE8F08B13B54FF000004FF0000147
:1004C000AFF30080BDE81C4070472DE9F0470D46B2
:1004D00099469246044600F124080168880604D52E
:1004E000E06921F01001216000E00120A84201DD57
:1004F000471B00E00027A1697A1902EB0900081ADE
:10050000A0612078C00602D42046AFF30080002608
:1005100008E0D4E901211AF806009047206A401C3F
:10052000761C20624E45F4DB2078C0060AD52046B2
:10053000AFF3008006E0D4E9012130209047206A23
:10054000401C2062381EA7F10107F4DC07E0D4E963
:10055000012118F805009047206A401C2062281EDF
:10056000A5F10105F3DC2046AFF3008020780006FA
:1005700002D50220BDE8F0870120FBE7074B70B5EC
:100580000D467B4400F037F80446284600F046F854
:1005900010B14FF0FF3070BD204670BD3F27000006
:1005A0004FF000020429C0F0128010F0030C3FF459
:1005B000EDAECCF1040CBCF1020F18BF00F8012B1A
:1005C000A8BF20F8022BA1EB0C01FFF7DFBE5FEA0A
:1005D000C17C24BF00F8012B00F8012B48BF00F8B4
:1005E000012B704700487047C401002001694A1C74
:1005F00002610878704700B58FB0CDE90131002164
:10060000059105497944CDE9031011466846FFF785
:1006100017FE0FB000BD0000E5FFFFFF007B00F0FC
:100620008000704710B542485421FFF7ADFE4148A5
:100630005421FFF7A9FE40485421FFF7A5FE3F498A
:100640003B483C4A3F4B08603D490A603A491960C3
:10065000531C0365481C1065012008653B48344A5B
:1006600039A1784400F00CFA20B9384878440A38A7
:1006700000F0ABFA37482F4A35A1784400F000FA71
:1006800020B9344878440A3800F09FFA32482A4AA0
:100690002FA1784400F0F4F920B92F4878440A38A3
:1006A00000F093FA40232248DC000021224600F0AB
:1006B000C4F920B125487844543800F086FA1D4822
:1006C00022464023002100F0B8F920B121487844A7
:1006D000543800F07AFA184822461023002100F01E
:1006E000ACF9002806D01C487844BDE810405638C4
:1006F00000F06BBA10BD104870B5006D20F0010419
:100700000B4800F033FA0B4800F030FA0A4800F0CA
:100710002DFA09E0206D20F00105204600F026FAB0
:10072000204600F078F82C46002CF3D170BD000074
:10073000C80000201C010020700100207C00002067
:10074000800000208400002072000000944B000014
:1007500077000000804B00006C4B00000EB5CDE927
:10076000000100F0C9FB029069460120ABBE0EBD3E
:1007700008B5694600900220ABBE08BD1FB58DE8E4
:10078000070069460520ABBE04B010BD1FB58DE85B
:100790000F0069460620ABBEF6E708B56946009033
:1007A0000920ABBE08BD1CB5CDE9000169460A2091
:1007B000ABBE1CBD704708B5694600900C20ABBEAF
:1007C00008BD000000487047C40100207546FFF7CF
:1007D000F9FFAE4605006946534620F007008546FE
:1007E00018B020B5FFF7EAFCBDE820404FF0000646
:1007F0004FF000074FF000084FF0000B21F0070109
:10080000AC46ACE8C009ACE8C009ACE8C009ACE84B
:10081000C0098D46704770B50446051F00F0DEF92B
:100820000068002C14BF446870BD002C18BFAC4297
:100830003CBF20466468F8D301680A18AA4218BF72
:10084000456003D12A6805461144016028684119B2
:10085000A1421CBF6C6070BD61686960216808447A
:10086000286070BD2DE9F04705460C46C86820F4A5
:10087000201040F48000C860800602D5084600F0D1
:10088000FAFAE06841F282014FF0FF390140022993
:1008900003D0204600F098FAB5E000F42041B1F50D
:1008A000004F0FD1C00306D56168E06A884200D8C6
:1008B0000846606006E02069E06260606069FFF7FA
:1008C0007AFFA061A0680022EEB200280DDAE1688C
:1008D0008B050AD4C043A06041F490302260E060F0
:1008E0006068411C61600670A5E0E0689046226087
:1008F00040F40050E060206968BB6069FFF74DFF7D
:10090000012704F12405A0B1A08910F4407F08D08C
:10091000E06900F0AEF9206118B1E06840F40060D1
:1009200016E0E7612561E06820F4407040F48060E3
:100930000EE0E06900F09DF900282061F1D0E06848
:1009400040F4006010F4407FE06002D140F4807019
:10095000E06020696060E06825696FF0010AC10508
:100960001FD56168E06A884200D80846411B04D060
:100970002246284600F032FAF0BBE068010203D5B7
:10098000E562C4E9015854E0691CE1626160E16913
:1009900040F48030491EC4E9021030462E70BDE894
:1009A000F087010202D500F480320AE06068411C41
:1009B00061600670E0680A2E40F48030E06006D086
:1009C0000022E16A6068814203D90B4602E00122FD
:1009D000F7E70346A7895B1B7F0503D4E7699F42BE
:1009E00000DDE2B1814200D80146E5620F1AC4E998
:1009F0000158002B09DD00E005E022461946284693
:100A000000F0ECF908B14846C9E747B1A069E562D2
:100A10006560C01BA061E06840F01000E060E06825
:100A2000000208D56168A069E562491B0844656059
:100A3000A0615046B3E73046B1E770B5C468A5077A
:100A400013D0650211D4B2F5807F09D0B2F5007FD2
:100A500006D0B2F5806F08D1012300F1240106E031
:100A60005D1E6FF07F46B54201D3012070BD01616C
:100A7000C361416024F470611143C160002070BD06
:100A80002DE9F0410C4607461646104600F06EF878
:100A90002078611C61280AD0722802D077283CD1C6
:100AA00002E00125002405E00225042402E00824D8
:100AB00048F2020511F8010B2B2806D0622809D054
:100AC00011F8010C74280AD00BE045F0030544F03E
:100AD0000204EFE745F0040544F00104EAE744F0BE
:100AE000100438462146FFF739FE411C15D000217D
:100AF000316171604FF40071F560F1617061200740
:100B000004D530460222002100F0E2F8306D40F0BA
:100B1000010030653046BDE8F0810020FBE72DE99B
:100B2000F0410D460646104C206DC10704D0410827
:100B300004D020F00104F7E722460EE0542000F034
:100B400098F807000ED0206D47F0010108435421AA
:100B500020653846FFF718FC3A4629463046BDE87E
:100B6000F0418DE70020D6E7C80000202DE9F047CE
:100B700004464FF000094FF0FF37C568D4E90486FA
:100B8000A80707D0204600F053F93046FFF7F0FDE4
:100B9000002802DA3846BDE8F087280502D540462D
:100BA000FFF739FE4C212046FFF7EEFB206D20F0C9
:100BB000010020654846EEE710B50446AFF300801B
:100BC0002046BDE81040FFF7E5BA10B500F07AF90D
:100BD000BDE8104000F070B9704700000048704751
:100BE000CC010020704770477047704738B5044605
:100BF0000A4600206946AFF30080002808BF38BDD0
:100C000002460099204600F0A4F9012038BD0120D9
:100C100000F0F3B9F8B5AFF30080054600200C46AC
:100C2000102000BF0646A819A0420DD932466946D9
:100C30000020AFF30080070008BF00F0DEF9009845
:100C4000A04218BF0546C419FFF7C8FF0560074654
:100C5000F01D20F007004619284600F073F9B44251
:100C600008BFF8BDA21B31463868BDE8F84000F067
:100C700070B970B50646FFF7B1FF056806F10B00C5
:100C800020F00704B4429CBF002070BD2B466A6868
:100C9000BAB11068A04210D304F1080188423CBFE9
:100CA0005068586007D35168101941601168091BDA
:100CB000016058601460101D70BD13465268002A10
:100CC000E7D121462846FFF791FF0028DED170BD0D
:100CD0002DE9F041044616460D464769007B800722
:100CE0002ED03846FFF759FD50BB3EB3012E02D03F
:100CF000022E25D104E0204600F045F905441DE010
:100D00003846FFF758FDE168002841F01001E16026
:100D100005DA204600F058F80120BDE8F081C9034B
:100D20000BD56268E16A914200D81146A26911446C
:100D30002269891A814200DD08460544002D01DA46
:100D40000220EAE7E16A6068E268814206D2910324
:100D5000E06203D522F4003141F01002A6690027B9
:100D6000AE4213DCE16A814201D90B4600E0034642
:100D700003EB060C2369ACEB030CAC4506DD8142AA
:100D800001D98C4600E084469C4505D1A7602760C8
:100D900042F02000A5620DE0AD1BE669AE1B81426A
:100DA000A66000D90846C01A281A20605819606049
:100DB00022F0200003490840E060002084F84870D9
:100DC000ABE70000BFCFD7FFC16821F4001141F0AD
:100DD0008001C16000218160016070472DE9F0470A
:100DE000814614460E464FF0FF383248D5685769A1
:100DF000054209D03846A169FFF7D5FC002811DB70
:100E00002C48C0430540E5602B46324649463846EB
:100E1000FFF7B4FCA16920F00042B21A1144002887
:100E2000A16103D02046FFF7CFFF4046BDE8F08721
:100E300070B504460569C06A6168884200D80846F2
:100E4000E16821F42011E160C90312D5A84208D05D
:100E50002246411B2846FFF7C1FF10B14FF0FF307B
:100E600070BD0020E562C4E90150E06820F48030E4
:100E7000E060002070BD10B50446C06820F020007E
:100E8000E060A16AA06988420DD02046FFF7D0FF3C
:100E9000E06820F4405040F01000E060A06AA061DB
:100EA0002069E062606044F24001E0688843E060ED
:100EB00010BD000010000200002801D000F03CB876
:100EC0007047000010B5014602A000F07DF8012037
:100ED00010BD000053494752545245443A205265D0
:100EE0006469726563743A2063616E2774206F7061
:100EF000656E3A200000000010B5431C02E010F8B7
:100F0000011B71B18107FAD14FF0013202C88C1A6E
:100F10008C4314EAC211F9D0C01A0A0603D0C01ECD
:100F200010BDC01A10BD0A0401D0801E10BD0902F8
:100F3000FCD0401E10BD000001491820ABBEFEE7EA
:100F40002600020000210160C0E901107047102056
:100F50007047034640688C46002818BF88423CBF53
:100F600003464068F8D318681844884207D00CF14B
:100F7000030020F00700001D411A521A0146081D07
:100F80000A60FFF748BC10B50146C268900703D05D
:100F9000900607D5886A0AE0FFF724FB012101606B
:100FA000881E10BD8B69486818440B69C01A91F8F7
:100FB00048301BB191F84910401A10BD1103FCD5FF
:100FC0000028FADD401E10BD70B505460C460A200B
:100FD00000E06D1C00F018F835B128780028F8D131
:100FE00002E0641C00F010F814B120780028F8D159
:100FF000BDE870400A2000F007B810B500F00CF80A
:10100000BDE81040FFF758BF08B569468DF80000ED
:101010000320ABBE08BD000010B5012805D000219B
:1010200003A0FFF7D1FF012010BD09A1F8E70000E0
:1010300053494752544D454D3A204F7574206F66C1
:101040002068656170206D656D6F72790000000029
:101050003A2048656170206D656D6F727920636F0D
:10106000727275707465640070B5044600688168BA
:10107000C943C90717D1816821F00101816000F0DF
:1010800067FB05460AE000BF00F062FB401B022838
:1010900004D920688068C043C00706D020688068F3
:1010A000C043C007F0D0002070BDA06A40F010001F
:1010B000A062E06A40F00100E062012070BDFEE73E
:1010C00038B5002000906B4601227521682002F09F
:1010D00051F831A0FFF7A8F89DF8000068280CD05F
:1010E000BFF34F8F35480168354A01F4E061114381
:1010F0000160BFF34F8F00BFFDE702F0A1F90028A8
:1011000049D1782002F012FE10B923A0FFF78CF825
:10111000782002F0C7F810B92AA0FFF785F8C82098
:1011200002F0C4FD10B931A0FFF77EF801F018FB02
:1011300010B938A0FFF778F84348044602F07CF86D
:101140000546E01C02F078F845EAC005A01D02F053
:1011500073F845EA801080B201F010FC10B93BA092
:10116000FFF762F840F2731001F0D2F910B941A014
:10117000FFF75AF8C82001F069FB10B947A0FFF744
:1011800053F802F059FE012002F0B6FC002802D10B
:101190004BA0FFF749F838BD6D70755F7365745FDC
:1011A00073656E736F7220636F6D706C657465200C
:1011B0002E2E2E2E2E2E0D0A000000000CED00E02B
:1011C0000400FA056D70755F636F6E66696775720E
:1011D000655F6669666F20636F6D706C657465200E
:1011E0002E2E2E2E2E2E0D0A000000006D70755F23
:1011F0007365745F73616D706C655F726174652097
:10120000636F6D706C657465202E2E2E2E2E2E0D44
:101210000A000000646D705F6C6F61645F6D6F74D5
:10122000696F6E5F6472697665725F6669726D7709
:1012300061726520636F6D706C657465202E2E2E53
:101240002E2E2E0D0A00000070000020646D705FCD
:101250007365745F6F7269656E746174696F6E2017
:10126000636F6D706C657465202E2E2E2E2E2E0DE4
:101270000A000000646D705F656E61626C655F6698
:1012800065617475726520636F6D706C657465203F
:101290002E2E2E2E2E2E0D0A00000000646D705F83
:1012A0007365745F6669666F5F7261746520636FF2
:1012B0006D706C657465202E2E2E2E2E2E0D0A005C
:1012C0006D70755F7365745F646D705F7374617466
:1012D0006520636F6D706C657465202E2E2E2E2E2A
:1012E0002E0D0A00704772B6FEE70000F8B5002424
:1012F000009490F824202546012A12D0012280F87B
:1013000024204A681F23072A0DD20668776B521ED5
:1013100002EB820293409F430B6893401F43776325
:1013200019E00220F8BD06680D2A0AD2376BD21FD9
:1013300002EB820293409F430B6893401F43376345
:1013400009E0F76A0D3A02EB820293409F430B6873
:1013500093401F43F7620A68072306680A2A0AD3E4
:10136000F7680A3A02EB420293409F438B6893402E
:101370001F43F76008E0376902EB420293409F4346
:101380008B6893401F4337610A68102A01D0112AE5
:1013900020D1124B02689A4217D193681B0219D4CC
:1013A000936843F4000393600968102912D10C4933
:1013B0000C4A0968B1FBF2F101EB8101490000E040
:1013C000491E00910029FBD104E0816A41F020010F
:1013D0008162012480F824502046F8BD0024014099
:1013E0000C00002040420F002DE9F0414FF00007B3
:1013F00004003D467ED0A06A002628B9E66284F843
:101400002460204600F07EF82046FFF72DFEA16AFA
:10141000C90600D420B1A06A40F01000A06269E0C3
:10142000A16A21F4885141F00201A1626268E16978
:10143000237B0A4347EA43010A43A1684FF48077BC
:10144000B94209D0012907D05FF0000194F814C017
:10145000BCF1010F02D00AE03946F7E7F3B1A36A05
:1014600043F02003A362E36A43F00103E3622368CD
:10147000D3F804C02CF4694C4CEA010CC3F804C046
:1014800021688B68DFF870C003EA0C0313438B609C
:10149000A168B9420BD0012909D00CE0DFF85CC08B
:1014A000A3690CEB43330B4343F40061DFE7218A6C
:1014B0000D05A5F580152168CB6A23F470032B4335
:1014C000CB62216889680E4B1940914208D1E662CF
:1014D000A16A21F0020141F00101A162BDE8F081A1
:1014E000A06A20F0020040F01000A062E06A40F024
:1014F0000100E0620120F1E7FDF7E1FF00E0FFFFFE
:10150000FE0E1FFF00B585B00021009101910291F0
:10151000039100680E49884218D10E48816941F450
:1015200000718161816901F400710491816941F068
:10153000040181618069694600F004000490402044
:10154000009003200190044800F008F805B000BDA9
:101550000024014000100240000801402DE9F84F2E
:10156000DFF8B8910024A9F1040B23460F2709F1F5
:10157000040AABF1040EC9E00125A5402A40AA42A5
:101580007DD1674ED1F804C0ACEB0608B44532D02B
:1015900014DCBCF1030F3AD009DCBCF1000F2AD0F7
:1015A000BCF1010F1CD0BCF1020F31D11DE0BCF128
:1015B000110F17D0BCF1120F2AD119E0B8F5881F0E
:1015C00019D006DCB8F5803F15D0B8F5801F1FD1C3
:1015D00011E0B8F5001F0ED0B8F5041F18D10AE0CD
:1015E000CB6815E0CB681B1D12E0CB6808330FE019
:1015F000CB680C330CE08B682BB1012B4FF0080348
:1016000003D0456104E0042302E0056100E000230B
:10161000FF2A01D8064601E000F104064FEA8405DE
:1016200001D9A5F12005D6F8008007FA05FC28EAC3
:101630000C0803FA05F548EA0508C6F800804D686D
:10164000ED0062D5374DAE6946F00106AE61AD6979
:1016500024F0030605F001050095334D06EB050C5B
:10166000DCF80850A607360F07FA06F825EA080541
:10167000DFF8B880404503D14FF0000817E044E0A0
:10168000DFF8AC80404502D14FF001080FE0DFF8F1
:10169000A480404502D14FF0020808E0DFF89880AE
:1016A000404502D14FF0030801E04FF0040808FA6A
:1016B00006F848EA0508CCF808804D68D9F80060BB
:1016C000ED024D4601D5164300E096432E604D686D
:1016D000DAF80060AD02554601D5164300E09643A6
:1016E0002E604D68DBF80060AD035D4601D5164302
:1016F00000E096432E604D68DEF80060ED0375460D
:1017000001D5164300E096432E60641C0D682A46FE
:10171000E5407FF431AFBDE8F88F000008040140D8
:1017200000001110001002400000014000080140BC
:10173000000C014000100140001401408068084086
:1017400000D0012070470AB1016170470904FBE72E
:1017500010B500F091F94FF47A71B0FBF1F0024945
:101760004968B1FBF0F010BD001000E0024881684C
:10177000027811448160704700000020074810B5CE
:10178000016841F010010160032000F057F80F20BC
:1017900000F006F800F022F8002010BD0020024002
:1017A0000A4810B5016841F08071016008480021C5
:1017B0004160016841F00101016000F05DF90549F7
:1017C000B0FBF1F004494860002010BDFCED00E0E2
:1017D000001000E040420F00100000200C4808B547
:1017E000816941F001018161816901F0010100918C
:1017F000C16941F08051C161C06900F08050009022
:101800000448416821F0E06141F00071416008BD89
:10181000001002400000014000280DDB00F01F0214
:10182000012191404009800000F1E020C0F88011C2
:10183000BFF34F8FBFF36F8F70470000064900F072
:10184000070208684FF6FF03184040EA0220034AE7
:1018500010430860704700000CED00E00000FA053E
:101860002DE9F84305460078354CC00754D0E069AF
:101870000026C00008D4E06940F08050E061E069D3
:10188000012600F0805000902E480168C90512D44E
:101890000168804641F480710160FFF759FF0746F7
:1018A00005E000BFFFF754FFC01B642823D8D8F819
:1018B0000000C005F6D5206A10F4407021D0A98838
:1018C00001F4407181421CD0206A1F49012220F49A
:1018D00040700A6000220A602062C00711D0FFF742
:1018E00037FF074641F2883808E000BFFFF730FFB6
:1018F000C11B414502D90320BDE8F883206A800757
:10190000F4D5206A696820F44070084320621EB153
:10191000E06920F08050E0612878800705D5606894
:10192000A96820F44040084360602878C00605D5C7
:101930006068E96820F48000084360600020DBE70D
:101940000010024000700040400442422DE9F04780
:101950000F46050061D0434E306800F00700B842E2
:1019600009D2306820F0070038433060306800F05A
:101970000700B84251D128683B4C810712D5400777
:1019800003D5606840F4E06060602878000703D504
:10199000606840F4605060606068A96820F0F00002
:1019A000084360602878C00728D06868012810D0F4
:1019B0002168022810D0890700292EDA616821F0F9
:1019C000030101436160FFF7C3FE804641F288399D
:1019D0000DE021688903EFE78901EDE7FFF7B8FE25
:1019E000A0EB0801494502D90320BDE8F0876068F3
:1019F000696800F00C00B0EB810FEFD1306800F0A7
:101A00000700B8420BD9306820F007003843306037
:101A1000306800F00700B84201D00120E5E72878DF
:101A2000400705D56068E96820F4E060084360601D
:101A30002878000706D56068296920F4605040EADC
:101A4000C100606000F018F86168084AC1F3031132
:101A5000515CC8400649086006480068FFF7A0FED0
:101A60000020C2E70020024000100240A445000808
:101A70000C000020040000200E4A51680E4801F0BE
:101A80000C03042B11D0082B0FD10C48C1F3834356
:101A9000C903C05C0AD55168084AC1F34041921E8F
:101AA000515C054A5043B0FBF1F07047044948438C
:101AB000704700000010024000127A0094450008B0
:101AC00000093D002DE9F84F040070D02078C04D8A
:101AD000C00749D06868C0F38100012807D0686852
:101AE000C0F38100022809D16868C00306D52868C0
:101AF000800339D560680028E7D035E06068B0F52C
:101B0000803F0BD010B1B0F5A02F11D0286820F481
:101B100080302860286820F4802002E0286840F4A3
:101B200080302860606890B1FFF712FE06460AE038
:101B3000286840F480202860F0E700BFFFF708FE27
:101B4000801B642873D828688003F7D50CE0FFF762
:101B5000FFFD064605E000BFFFF7FAFD801B642885
:101B6000F0D828688003F7D420789A4E80074FF089
:101B700001094FF0000839D5686810F00C0F07D044
:101B80006868C0F38100022809D16868C00306D4E0
:101B90002868800714D52069012808D110E0206941
:101BA000B0B1C6F80090FFF7D3FD074605E00AE1A3
:101BB000FFF7CEFDC01B0228C4D828688007F7D5E0
:101BC0002868616920F0F80040EAC10028600DE053
:101BD000C6F80080FFF7BCFD074604E0FFF7B8FD3C
:101BE000C01B022823D828688007F7D42078000774
:101BF0002CD57948A169D9B1C0F80090FFF7A8FDAC
:101C0000074604E0FFF7A4FDC01B02280FD8686A4E
:101C10008007F7D571484FF4FA510068B0FBF1F036
:101C2000009000BF0098411E0091FAD20EE080E0C3
:101C3000C0F80080FFF78CFD074604E0FFF788FD41
:101C4000C01B022875D8686A8007F7D4207840073F
:101C500060D5E8690027C00008D4E86940F08050EA
:101C6000E861E869012700F0805000905C48016855
:101C7000C90513D40168834641F480710160FFF700
:101C800067FD824606E000BFFFF762FDA0EB0A0099
:101C900064284ED8DBF80000C005F5D5E0680128BF
:101CA0000AD008B1052813D0286A20F00100286264
:101CB000286A20F0040002E0286A40F0010028624F
:101CC000E06841F2883B98B1FFF742FD82460BE0A5
:101CD000286A40F004002862EEE700BFFFF738FDF5
:101CE000A0EB0A0159455AD8286A8007F6D50CE0BE
:101CF000FFF72EFD824605E0FFF72AFDA0EB0A0163
:101D000059454CD8286A8007F6D41FB1E86920F0FD
:101D10008050E861E06988B36968C1F381010229F4
:101D200044D00228C6F8608004D0FFF711FD0446B5
:101D300038E034E0FFF70CFD074604E0FFF708FD4C
:101D4000C01B02282BD828688001F7D4206AB0F580
:101D5000803F05D16868A16820F4003008436860BE
:101D6000D4E908010843696821F4741108436860E4
:101D7000C6F86090FFF7ECFC044606E025E000BFE3
:101D8000FFF7E6FC001B022809D828688001F7D578
:101D90001BE000BFFFF7DCFC001B022802D9032078
:101DA000BDE8F88F28688001F4D40EE00128F7D050
:101DB0006868226A00F48031914204D1616A00F4BB
:101DC0007010884201D00120EAE70020E8E7000017
:101DD0000010024000004242800442420C000020F9
:101DE00000700040FEE770B50D46044600F0EAF8CA
:101DF000204600F0ABF800F049F9284600F0A6F8BC
:101E000000F044F900F0DEF8641CE0B200F09EF847
:101E100000F03CF9002000F05DF8044600F00AF9FB
:101E2000204670BD70B5144D4FF4807400222146D9
:101E30002846FFF788FC2A1D106820F0F00010608B
:101E4000106840F030001060002261002846FFF763
:101E50007AFC012000F03EFB012221462846FFF7D4
:101E600072FC012000F036FB21462846BDE8704098
:101E70000022FFF768BC0000000C014070B5144D53
:101E80004FF48074002221462846FFF75CFC2A1D8F
:101E9000106820F0F0001060106840F03000106012
:101EA000012251022846FFF74EFC012000F012FBF0
:101EB000012221462846FFF746FC012000F00AFBDC
:101EC00021462846BDE870400022FFF73CBC0000D8
:101ED000000C01402DE9F04780461B4800240168B2
:101EE00021F0F0010160016841F080010160861578
:101EF0002546071F4FF40079002231463846FFF788
:101F000022FC022000F0E6FA012231463846FFF7B3
:101F10001AFC6006040E49463846FFF70FFC08B16C
:101F2000641CE4B2022000F0D5FA6D1CEDB2082D5D
:101F3000E2D3B8F1000F02D0FFF774FF01E0FFF722
:101F40009DFF2046BDE8F087040C01402DE9F041DB
:101F500005461B48016821F0F0010160016841F06D
:101F6000300101608615071F002231463846FFF711
:101F7000EAFB00244FF40078280601D5012200E096
:101F8000002241463846FFF7DEFB6806050E0120B9
:101F900000F0A0FA012231463846FFF7D4FB0120B9
:101FA00000F098FA002231463846FFF7CCFB0120BA
:101FB00000F090FA641CE4B2082CDDD3BDE8F08197
:101FC000040C014070B51A48016821F0F00101606D
:101FD000016841F0300101604415051F01222146CE
:101FE0002846FFF7B0FB21462846FFF7A7FB00284D
:101FF00013D00122160231462846FFF7A4FB012028
:1020000000F068FA002221462846FFF79CFB214693
:102010002846FFF793FB08B1002070BD012000F0B7
:1020200059FA002231462846FFF78DFB012070BD8A
:10203000040C014070B51448016821F0F001016002
:10204000016841F0300101608415051F002221461E
:102050002846FFF778FB6600002231462846FFF746
:1020600072FB012000F036FA012221462846FFF7D4
:102070006AFB012231462846FFF765FBBDE8704048
:10208000012000F027BA0000040C01402DE9F041C6
:1020900019480024016821F0F0010160016841F055
:1020A000800101604615051F012231462846FFF7D1
:1020B0004AFB012000F00EFA012217023946284699
:1020C000FFF741FB08E0641CE4B2322C04D9FFF7AF
:1020D000B1FF0020BDE8F081012000F0FBF931469E
:1020E0002846FFF72BFB0028EDD100223946284671
:1020F000FFF729FB0120EDE7040C014010B5144661
:10210000FFF771FE2070012010BDF8B515461C4682
:102110000E4607466A46FFF7F1FF01209DF80010C2
:10212000A8400CB1084301E021EA0000C2B28DF8DA
:1021300000203146384600F02BF8F8BD2DE9F84371
:1021400014461D460F4680466A46089EFFF7D6FF96
:1021500000281BD0611CFF20C4F1080200FA01F125
:102160002A44521ED0400143C5F108008640F2B215
:10217000C4F10700C2409DF80000084010438DF8EC
:102180000000C2B23946404600F002F8BDE8F883CC
:1021900007B502AB012200F001F80EBD2DE9F041B8
:1021A0001E461546884607460024FFF70BFF3846B3
:1021B000FFF7CCFEFFF76AFF4046FFF7C7FEFFF7C9
:1021C00065FF06E0305DFFF7C1FEFFF75FFF641CAF
:1021D000E4B2AC42F6D3FFF72DFF0120BDE8F08159
:1021E00010B5022000F011F8032000F020F80020C4
:1021F00000F014F8002000F02FF8002000F026F87E
:10220000BDE81040002000F01BB808B50323009083
:1022100002226B21D020FFF791FF08BD08B50223F1
:10222000009004221C21D020FFF788FF08BD08B5CC
:102230000223009004221B21D020FFF77FFF08BD5E
:10224000034601223721D020FFF75FBF0346052256
:102250006A21D020FFF759BF034606226B21D02008
:10226000FFF753BF3EB50024114800940194029437
:102270000E498460016004730475012505614FF403
:1022800060214460C161FFF7AFF808B1FFF72BF898
:102290000620CDE90005694602940548FFF726F8B7
:1022A000002801D0FFF71FF83EBD000000240140C8
:1022B000880000202DE9F04186B0002423480094D6
:1022C000019402940394816941F020018161816944
:1022D00001F020010491816941F00401816181696B
:1022E00001F004010491816941F008018161806974
:1022F000012200F00800164FD50304902946384605
:10230000FFF721FADFF84C8001224FF44E7140466E
:10231000FFF719FA002240214046FFF714FA009512
:10232000032601250396CDE9015469463846FFF797
:1023300015F94FF45E70CDE90005CDE90246694616
:102340004046FFF70BF906B0BDE8F08100100240EF
:1023500000080140000C0140FEE7FEE770477047AF
:10236000FFF704BA30B593B028216846FEF70CF8A1
:1023700014210AA8FEF708F8002501200F951095F2
:102380001195010412958DE8230004904FF4E0109C
:10239000CDE90810022407946846FFF793FB08B1C3
:1023A00072B6FEE70AA90F2081E831004FF4806081
:1023B000CDE90D0502210AA8FFF7C8FA08B172B6E7
:1023C000FEE74FF4004011900F940FA8FFF748FA72
:1023D000002801D072B6FEE713B030BD7047FEE7AB
:1023E0002DE9FE4F07460E460025684600F078FCB2
:1023F00000246FF00F0AE8464FF0010957F8240057
:1024000056F82410401A00D5404201F0E5FE51462E
:1024100002F081F858F8241011F0FF4F0BD001F0B2
:10242000DDFD4FF07E5101F0CFFF0A4920F0004062
:10243000884205DC07E0084908440849884202D37D
:1024400009FA04F00543641C032CD7DB2846BDE8D9
:10245000FE8F0000295C0F3E666666C19A99D9001E
:1024600010B54FF0E020016921F00401016101691C
:1024700021F002010161FFF7FFFA0749B0FBF1F01B
:10248000064900EB40020880C2EBC0104FF6FF7215
:1024900002EAC000488010BD00127A00100000203F
:1024A0000B49498841434FF0E0204161002282619D
:1024B000016941F0010101610169CB0701D0C90344
:1024C000FAD5016921F001010161826170470000C4
:1024D00010000020704708B560B120208DF8000082
:1024E00028208DF8010030208DF8020038208DF86A
:1024F000030004E0A32204216846FDF73DFF6A467D
:10250000042140F69E2001F06DFC01F033F908BD76
:102510003EB5044602208DF80000CA208DF8010067
:10252000E3208DF8020009208DF803006A4604219B
:10253000682001F057FCA3208DF80000610609D542
:10254000C0218DF80110C8218DF80210C2218DF82C
:10255000031005E08DF801008DF802008DF80300EE
:1025600014F4C07F09D0C4218DF80410CC218DF85B
:102570000510C6218DF8061005E08DF804008DF8D1
:1025800005008DF806008DF808008DF807008DF81D
:1025900009006A460A2140F6A72001F023FCA007A3
:1025A0004FF0D80503D020208DF8000001E08DF811
:1025B00000506A46012140F6B62001F013FCA00647
:1025C00001D5012000E0002000F08EF814F4C07F57
:1025D0001ED0E0050AD5B2208DF800008B208DF8C2
:1025E0000100B6208DF802009B2009E0B0208DF894
:1025F000000080208DF80100B4208DF802009020AA
:102600008DF803006A46042140F6A22001F0EAFB9F
:10261000E1074FF40B6022D0F8218DF800106A46D4
:10262000012101F0DFFBFA21072000F097FA0720D3
:1026300000F062FA012000F07FFA642000F022FB33
:102640004FF4FA7000F02EFBC821254800F01CFA68
:10265000282000F031FA0A2000F03EFA05E08DF85B
:1026600000506A46012101F0BDFBA00703D5D92027
:102670008DF8000001E08DF800506A46012140F21B
:102680003D7001F0AFFB600701D5012000E00020A4
:1026900000F048F8E00601D5012000E00020FFF737
:1026A0001AFF104D44F00800688101F063F8002023
:1026B000A873600601D50620A87314F4C07F02D069
:1026C000A87B801DA87314F0140F02D0A87B1030D3
:1026D000A873A00702D0A87B001DA87300203EBDF0
:1026E00009E3CA02B80000200EB54FF4976310B199
:1026F00006A107C901E008A207CA8DE807006A46DB
:102700000921184601F06EFB0EBD0000B8AAB38D7A
:10271000B4980D355D000000B8AAAAAAB088C3C558
:10272000C700000008B560B1C0208DF80000C220CD
:102730008DF80100C4208DF80200C6208DF803003A
:1027400004E08B2204216846FDF716FE6A46042148
:1027500040F6982001F046FB01F00CF808BD00009F
:10276000C8234FF48062024940F6F63000F02CBFD7
:10277000044600082DE9FF41044603A800F0DAFDF5
:10278000BDF80C00410CC3032F48028902F003007E
:10279000550754F8200000D54042C2F3C105960603
:1027A00054F8255000D56D42C2F38116D20554F875
:1027B000264000D56442A0FB0367C21702FB0372E8
:1027C00000FB0120820042EA9670A5FB0367EA172E
:1027D00002FB037205FB0122950045EA9672A4FBF9
:1027E0000367E51705FB037304FB01318B0043EA24
:1027F0009671030E8DF80030030C8DF80130030A3A
:102800008DF802308DF80300100E8DF80400100CC6
:102810008DF80500100A8DF80600080E8DF80800E6
:10282000080C8DF80900080A8DF80A008DF80720B9
:102830008DF80B106A460C214FF4257001F0D2FA86
:1028400004B0BDE8F0810000B800002030B50446B7
:1028500013A285B007CA8DE807004FF0FF35C82CDA
:1028600016D8C820B0FBF4F1491E080A8DF80C00F8
:102870008DF80D1003AA022140F2162001F0B2FAE1
:1028800030B96A460C2140F6C12001F0ABFA10B114
:10289000284605B030BD054884810020F9E70000D6
:1028A000FEF2ABC4AAF1DFDFBBAFDFDFB800002070
:1028B000F8B53049098901F0030250F822404A076F
:1028C00000D56442C1F3C1028B0650F8222000D526
:1028D0005242C1F3811350F82330C80500D55B4242
:1028E000254984FB0140850045EA947082FB014242
:1028F000A40F44EA820483FB0121950F45EA810578
:10290000010E8DF80010010C8DF80110010A8DF8F0
:1029100002108DF803006A4604214FF4747001F030
:1029200061FA4FF0FF3688B9200E8DF80000200CB8
:102930008DF80100200A8DF802008DF803406A46E8
:1029400004214FF4757001F04DFA08B13046F8BD1E
:10295000280E8DF80000280C8DF80100280A8DF84B
:1029600002008DF803506A4604214FF4767001F09E
:1029700039FAF8BDB800002009E3CA022DE9FF4189
:1029800004463CA004F00303006802903AA00068EB
:1029900003903AA006683AA0056802A8C15C8DF8C9
:1029A0000010C4F3C101425C8DF80120C4F3811210
:1029B000805C8DF8020003A8C35C8DF80430415C94
:1029C0008DF80510805C8DF806006A46032140F200
:1029D000264001F007FA4FF0FF37E0BB01AA0321C0
:1029E00040F22A4001F0FEF9A8BBCDE9006560077E
:1029F0000BD59DF8000040F001008DF800009DF817
:102A0000040040F001008DF80400A0060BD59DF8ED
:102A1000010040F001008DF801009DF8050040F034
:102A200001008DF80500E0050BD59DF8020040F08F
:102A300001008DF802009DF8060040F001008DF8BD
:102A400006006A4603214FF4886001F0CBF910B903
:102A500001AA032100E004E040F2314001F0C2F994
:102A600018B1384604B0BDE8F08106480481002062
:102A7000F8E700004CCD6C000CC92C0036567600EF
:102A800026466600B80000204FF47A7290FBF2F000
:102A900008B54843010E8DF80010010C8DF80110A7
:102AA000010A8DF802108DF803006A4604214FF4E4
:102AB000AE7001F097F908BD0521B0FBF1F008B543
:102AC000010A8DF800108DF801006A4602214FF4CA
:102AD000AD7001F087F908BD0521B0FBF1F008B534
:102AE000010A8DF800108DF801006A4602214FF4AA
:102AF000AC7001F077F908BD08B500218DF8001021
:102B0000C10702D030218DF80010810705D59DF84E
:102B1000001041F00C018DF80010400705D59DF81C
:102B2000000040F003008DF800006A4601214FF4D8
:102B3000A47001F057F908BD08B560B1042800D9A8
:102B40000420401E8DF800006A46012140F24F101B
:102B500001F048F908BD0120F3E700002DE9FC4130
:102B6000054640074FF0FF367CD0B1F5C86F79D8E5
:102B7000084601F049FB3E4901F030FA074601A83A
:102B800000F0BAFB9DF80400022806D004280DD0FE
:102B900008282ED0102865D134E00E21384601F0E7
:102BA000BAFC01F0F9FA84B2324907E00D21384647
:102BB00001F0B1FC01F0F0FA2F4984B2384601F07F
:102BC00037FB01F0E9FA210A8DF8001080B28DF888
:102BD0000140010A8DF802108DF80300E8076C46E9
:102BE00020D0224602214FF4EA7001F0FBF8C8BB66
:102BF00011E00C21384601F08EFC01F0CDFA84B2D0
:102C00001E49DBE70B21384601F085FC01F0C4FAD0
:102C100084B21B49D2E7A21C02214FF4927001F04A
:102C2000E1F8F8B9A8070DD56A4602214FF4EC7017
:102C300001F0D8F8B0B9A21C02214FF4947001F051
:102C4000D1F878B9680710D56A4602214FF4EE70C2
:102C500001F0C8F830B9A21C02214FF4967001F0BF
:102C6000C1F810B13046BDE8FC810020FBE7000050
:102C700000004843000040460000C04500004045B9
:102C80000000C0440521B0FBF1F008B5010A8DF841
:102C900000108DF801006A4602214FF4EF7001F038
:102CA000A1F808BD0521B0FBF1F008B5010A8DF8C7
:102CB00000108DF801006A4602214FF4ED7001F01A
:102CC00091F808BD8A68002A01DCFDF7CBBD521ED1
:102CD0008A604A68C0B2531C4B6010707047000095
:102CE0002DE9FE430646264801AB042240680D212B
:102CF000007800F03FFA10B10720BDE8FE839DF890
:102D000004101C2000EAD1029DF80710DFF874902F
:102D1000C1F301131A438DF800209DF80520C1F37B
:102D2000810300EAD2021A438DF801209DF80620A3
:102D300001F0030100EAD20008430024124F8DF88D
:102D40000200A0466D46285D10B146F824900AE0C6
:102D500046F824800DE000BF56F82400394601F003
:102D600067FA46F82400285D401E10F0FF00285541
:102D7000F2D1641CE4B2032CE5D30020BDE70000CF
:102D8000180000207B14AE3E1D5A843F2DE9FE4FF3
:102D900005460120C14E8DF800004FF000088DF867
:102DA000018030680C461746817C70686B460222B1
:102DB000007800F017FA4FF0FF3A00287AD1C820C7
:102DC000FFF76EFB8DF8008030686B460122C17BF7
:102DD0007068007800F006FA0028EFD130686B4682
:102DE000012241797068007800F0FCF90028E5D1F3
:102DF00030686B460122817C7068007800F0F2F93F
:102E00000028DBD130686B460122C17D70680078F4
:102E100000F0E8F90028D1D130686B460122017931
:102E20007068007800F0DEF90028C7D14FF00C0977
:102E30008DF8009030686B46012201797068007847
:102E400000F0D0F9002835D10F20FFF729FBB06A38
:102E50006B460122407A8DF80000306881787068F6
:102E6000007800F0BFF9002824D1B06A6B46012237
:102E7000007A8DF80000306841787068007800F0C2
:102E8000B1F9002873D1B06A807A0FB140F0E00048
:102E90008DF8000030686B460122817970680078F7
:102EA00000F0A0F9002862D12FB1B06AC07A40F0DA
:102EB000E00001E04AE018208DF8000030686B4621
:102EC0000122C1797068007800F08CF9F0BB17B16D
:102ED000C820FFF7E5FA40208DF8000030686B4607
:102EE000012201797068007800F07CF970BB7820CD
:102EF0008DF8000030686B460122417970680078D7
:102F000000F070F910BB3220FFF7CAFA8DF800808C
:102F1000306847466B46417970680122007800F0BE
:102F200061F998B931687068B046897A00786B4663
:102F3000022200F01FF948B9BDF80000AF6040BAA6
:102F4000B0FBF9F06F60C6B22F6000E00FE0A76041
:102F500067602760002739E0D8F80010D8F804002F
:102F60006B46C97A00780C2200F004F910B1504683
:102F7000BDE8FE8FBDF80000236840BA02B2BDF87C
:102F80000200BDF804101A44226040BA626800B220
:102F90001044606049BAA06809B20844A060BDF856
:102FA00006002B6840BA02B2BDF808001A4440BAC5
:102FB00001B2BDF80A002A606A6840BA114469602B
:102FC000A96800B208447F1CFFB2A860B742C3D30F
:102FD00028688322C117090441EA10410004002334
:102FE000FDF7FEF832460023FDF7FAF8286068681E
:102FF0008322C117090441EA104100040023FDF7B0
:10300000EFF832460023FDF7EBF86860A8688322EA
:10301000C117090441EA104100040023FDF7E0F85C
:1030200032460023FDF7DCF8A86020684FF4006505
:10303000C117090441EA104100042A460023FDF7A4
:10304000CFF832460023FDF7CBF8206060682A46AF
:10305000C117090441EA104100040023FDF7C0F83C
:1030600032460023FDF7BCF86060A0682A46C1170D
:10307000090441EA104100040023FDF7B1F832468B
:103080000023FDF7ADF8A060002802DDA0F5803038
:1030900001E000F58030A060002069E71800002002
:1030A0002DE9F84F81462E488846002540686B463A
:1030B000032200780D2100F05DF810B10720BDE873
:1030C000F88F9DF80000002400F01F008DF800002C
:1030D0009DF801006FF00F0B00F01F008DF801004C
:1030E0009DF802006E4600F01F008DF802004FF0C0
:1030F000010A00BF59F8241058F82400081A00D516
:10310000404201F069F8594601F005FA0746305D82
:10311000C0B1144802E0144901F08AF8315D491E3B
:1031200011F0FF013155F6D10146384600F056FF47
:103130004FF07E5101F048F90C4920F000408842E0
:1031400005DC07E00A483844B0F1D97F02D90AFA11
:1031500004F00543641C032CCCDB2846AFE70000D9
:10316000180000200000C84154E3853F295C0F3E51
:103170000000E0BE2DE9F0411D4614460F4606460C
:10318000FEF720FFB0B17006000EFEF7DFFEFEF77F
:103190007DFF90B13846FEF7D9FEFEF777FFFEF7C8
:1031A00011FF012000EB4600C0B2FEF7CFFEFEF794
:1031B0006DFF0FE00120BDE8F081FEF73BFFF9E76E
:1031C000012C0DD05FF00100FEF784FE641E05F8AF
:1031D000010BE4B2002CF3D1FEF72CFF0020EAE74C
:1031E0000020F1E72DE9F0411E4615460F46044642
:1031F000FEF7E8FE68B16006000EFEF7A7FEFEF7D8
:1032000045FF48B13846FEF7A1FEFEF73FFF002418
:103210000CE00120BDE8F081FEF70CFFF9E7305D1E
:10322000FEF794FEFEF732FF10B1641CAC42F6DBF1
:10323000FEF700FF0020EDE790F90010002902DD05
:103240004FF00000704702DA4FF00400704790F929
:103250000110002902DD4FF00100704702DA4FF043
:103260000500704790F90200002802DD4FF00200CF
:10327000704702DA4FF0060070474FF007007047C2
:10328000FEF77CFAFFF76EF8FFF714F8FEF7EAFF97
:103290002820FEF7C1FAFFF7E3F8FEF7A1FFFDF7DC
:1032A0000FFFFEE72DE9F041124C20F0010100254F
:1032B00094F8240010B10020BDE8F081A07A4FF00E
:1032C000FF3668B10840277C2074884200D035461C
:1032D00041B1012000F0EEFD00F04CFA38B1277446
:1032E0003046E9E7207D00B1012000F0E3FD2846EB
:1032F000E2E70000180000200D494A7A42B1012A95
:1033000008D0022A0FD0032A0FD04FF0FF307047A9
:10331000022200E004220270C97C11B11106C90D1D
:103320000170002070470822F5E71022F3E7000043
:10333000180000200F494A7A42B1012A09D0022A16
:1033400011D0032A12D04FF0FF3070474FF4804263
:1033500001E041F69C720280C97C11B1C2F34E01BA
:103360000180002070474FF48052F4E74FF4006270
:10337000F1E70000180000200B49097A39B1012952
:1033800007D002290AD003290BD0002103E0FA213B
:1033900001E04FF4FA710180002070474FF47A7118
:1033A000F9E74FF4FA61F6E7180000200A49097AB4
:1033B00041B1012908D002290AD003290AD04FF0CF
:1033C000FF307047054900E0054901600020704763
:1033D0000449FAE70449F8E7180000200000034315
:1033E0000000834233330342333383410C49C97AAB
:1033F000072913D2DFE801F01204060A0C0E1000B0
:10340000BC2100E062210180002070472A21FAE7F8
:103410001421F8E70A21F6E70521F4E70021F2E795
:1034200018000020054991F8242012B14FF0FF3018
:103430007047C989018000207047000018000020F3
:103440002DE9FC414C4C80208DF8000020686B4633
:103450000122817C60680078FFF7C4FE4FF0FF37DF
:10346000002832D16420FFF71BF800258DF80050AA
:1034700020686B460122817C60680078FFF7B2FE0D
:10348000002870D120686B460622817D6068007834
:10349000FFF770FE002866D19DF805009DF8031027
:1034A000C007400F01F0010140EA41019DF8010011
:1034B0004FF0010600F00100014309D0012905D0B9
:1034C000022915D02DA0FCF7AFFE4CE0E67410E009
:1034D00020686B460122C17860680078FFF74AFED9
:1034E00040BB9DF8000010F00F0020D0042822D02F
:1034F000E574FF2004F80A0F4FF6FF7104F8020C80
:1035000004F8010C6070A180A0712072A67026766C
:103510006576E572A572E56025616561A576E5765B
:10352000A5834FF4FA6000F023FB18B907E01D48AB
:10353000FCF77AFE17E01CA0FCF776FEC6E7022037
:1035400000F038FA78B92A2000F07AFB58B9322016
:1035500000F0ACFB38B90020FFF7A4FE18B900203A
:1035600000F05CFA10B13846BDE8FC81002000F0A4
:10357000DDFB0020F8E7000018000020556E737591
:1035800070706F7274656420736F667477617265B2
:103590002070726F64756374207265762025642EC6
:1035A0000A0000000852000848616C662073656ECE
:1035B0007369746976697479207061727420666FBA
:1035C000756E642E0D0A00002DE9FF4FDFF8948020
:1035D000064685B098F8250015460F464FF0FF398E
:1035E000B0BBAFB3002420E0301B102800DD10205A
:1035F00080B283463A1901469246204600F0F2FB1B
:1036000030BB6A465946204600F08AF800BB504657
:103610005A466946FCF784FE20B16FF0010009B0FC
:10362000BDE8F08F04EB0B0084B2B442DCD3280A6F
:103630008DF810008DF81150D8F80000444604AB06
:10364000817ED8F8040002220078FFF7CBFD08B194
:103650004846E4E7012084F825000898E08400202B
:10366000DDE70000180000202DE9F84305464FF083
:10367000FF39282844D80727284C00267DB101208F
:1036800000F0ACFA20208DF800004FF00108012D69
:1036900017D0052D18D88DF8018005201FE00020D7
:1036A00000F09CFA8DF800608DF8017020686B4680
:1036B0000222817C60680078FFF794FD00BB2675CC
:1036C00029E08DF80160E8E7142D04D802208DF878
:1036D00001000A2003E003208DF80100142000F00F
:1036E000AFFA9DF801006B4607EB80108DF80100E2
:1036F00020680222817C60680078FFF773FD10B1BA
:103700004846BDE8F8830820A072267384F8148028
:103710000020FFF7C7FD0020F3E70000180000209D
:10372000F8B516000D464FF0FF371FD0104CA17AA8
:10373000E1B1010A8DF80010C0B28DF80100411905
:1037400060684289914211D8216800786B46097EF1
:103750000222FFF747FD48B92068EAB23346417DAF
:1037600060680078FFF706FD002800D03846F8BDF5
:1037700018000020F8B5524C4FF0FF36A07A002810
:103780007CD000258DF8005020686B460122C17B5B
:1037900060680078FFF726FD00286FD120686B462F
:1037A0000122417960680078FFF71CFD002865D18F
:1037B00020686B460122017960680078FFF712FDEE
:1037C00000287AD194F82400C8B30C208DF80000AA
:1037D00020686B460122017960680078FFF702FDDE
:1037E00000286AD1C0208DF80000A07AC00702D05E
:1037F000E0208DF8000020686B46012201796068A6
:103800000078FFF7EFFC002857D1607C18B1022048
:103810008DF8000001E08DF8005020686B46012211
:10382000C17B60680078FFF7DDFC38BB8DF8005085
:1038300020686B46012241796068007839E0FFE733
:1038400004208DF8000020686B4601220179606831
:103850000078FFF7C7FC88B9A07C80B9A07AC007C0
:103860000DD060208DF8000020686B4601220179A0
:1038700060680078FFF7B6FC00B902E01DE0402068
:10388000F0E7607C18B101208DF8000001E08DF8B0
:10389000005020686B460122C17B60680078FFF70A
:1038A000A1FC50B92068064B0122417960681033B1
:1038B0000078FFF797FC002800D03046F8BD0000E4
:1038C000180000202DE9F047394C82468AB094F860
:1038D00024000F4620B1002000F00EF9012600E080
:1038E000002607A8FFF748FD06A8FFF705FD09A871
:1038F000FFF77CFD08A8FFF795FD94F80A9094F86F
:1039000010800025002239465046FFF73FFA10B1DB
:103910006D1C022DF6DB022D1AD00025012203A911
:103920006846FFF733FA10B16D1C022DF6DB022D4D
:103930000ED003A93846FEF753FDC7B2694650467C
:10394000FFF7AEFB10F0FF0F4FF0000502D002E0D2
:10395000002503E001250FB945F00205FF20207284
:103960006072E0724FF6FF71E181A0722074012055
:103970002073BDF81C0000F0FBF89DF8180000F063
:1039800019F8BDF8240000F05BF9BDF8200000F044
:103990008DF9484600F0CAF94046FFF783FC16B19E
:1039A000012000F0A9F80AB02846BDE8F087000021
:1039B0001800002038B5184C4FF0FF35A17A19B324
:1039C000022806D0042806D008280ED010281BD1C3
:1039D0000DE0002000E008208DF80000607A9DF8DE
:1039E0000010B0EBD10F04D005E01020F4E7182050
:1039F000F2E7002038BD20686B460122C17960687B
:103A00000078FFF7EFFB08B1284638BD9DF80000AD
:103A1000C0086072EDE7000018000020F8B5354CD2
:103A20000546A07CA84201D10020F8BD31484FF0E6
:103A3000FF366B46D0E900104FF00102097900789B
:103A400035B3FFF797FB70BB9DF800006B4620F085
:103A500020008DF80000206801220179606800785C
:103A6000FFF7C0FBF8B90320FEF71AFD02208DF81E
:103A7000000094F8220078B382202BE020686B4687
:103A80000122017D60680078FFF7ACFB58B92EE099
:103A9000FFF770FB38B9A07AC0079DF8000003D08B
:103AA00040F0200002E00CE020F020008DF8000043
:103AB00020686B460122017960680078FFF792FB6D
:103AC00008B13046F8BD0320FEF7EAFC94F8220066
:103AD00000B180208DF8000094F823000028CDD09C
:103AE0009DF8000040F030008DF80000C6E7A57496
:103AF0009AE700001800002038B51C4C94F82410F8
:103B000081421DD0002500B394F82500D0B10020DB
:103B100000F0D0F90020FFF781FFE08C00F0C6F83C
:103B20008DF8005060686B46012200782321FFF772
:103B300059FB012084F8240000F0BCF9FFF71AFEBD
:103B4000002038BD4FF0FF3038BD002000F0B2F942
:103B5000207C8DF8000060686B46012200782321EC
:103B6000FFF740FB84F82450E8E70000180000202D
:103B700038B5194C4FF0FF35A17A31B3FA2809D086
:103B8000B0F5FA7F08D0B0F57A7F0FD0B0F5FA6FB4
:103B90001BD10DE0002000E008208DF80000207A05
:103BA0009DF80010B0EBD10F04D005E01020F4E731
:103BB0001820F2E7002038BD20686B460122817989
:103BC00060680078FFF70EFB08B1284638BD9DF805
:103BD0000000C0082072EDE71800002038B5174C2F
:103BE000054694F82300A84201D1002038BD0DB14C
:103BF000302000E000208DF80000A07C28B19DF866
:103C0000000040F002008DF8000094F8220028B176
:103C10009DF8000040F080008DF8000020686B46A1
:103C20000122017D60680078FFF7DCFA10B14FF0E7
:103C3000FF3038BD84F82350D7E70000180000207B
:103C400038B5194C4FF0FF35A17A31B3BC2801D3F8
:103C5000012010E0622801D302200CE02A2801D3C1
:103C6000032008E0142801D3042004E00A2801D32B
:103C7000052000E006208DF80000E07A9DF8001095
:103C8000884201D1002038BD20686B46012281782E
:103C900060680078FFF7A6FA08B1284638BD9DF89D
:103CA0000000E072EEE7000018000020F8B51E4D9D
:103CB00004464FF0FF37A87A48B395F8240030BB8C
:103CC000287D4FF47A7648B164B1282C03D8E0B24D
:103CD000FFF7CAFC26E00020FFF7C6FC042C05D243
:103CE000042406E00020FFF7BFFCF9E7B44200D946
:103CF0003446B6FBF4F0401E8DF8000028686B4691
:103D00000122417868680078FFF76CFA08B13846FC
:103D1000F8BD9DF80000401CB6FBF0F0E8814008BB
:103D2000FFF78EFF0020F8BD18000020F8B505460B
:103D300010F0700F4FF0000601D0012004E015B123
:103D40008DF8006002E040208DF80000244C6B46A6
:103D500001222068817C60680078FFF743FA4FF009
:103D6000FF3760BB9DF8000020F0400020738DF805
:103D70000060680602D404208DF80000A80605D46F
:103D80009DF8000040F002008DF80000E80605D420
:103D90009DF8000040F001008DF80000280705D4D0
:103DA0009DF8000040F038008DF8000020686B4658
:103DB0000122C17C60680078FFF714FA10B1A67286
:103DC0003846F8BD25B1082D02D00020FFF706FFC8
:103DD000A57226753220FEF763FB0020F8BD0000B7
:103DE00018000020F8B516000D464FF0FF371FD021
:103DF000104CA17AE1B1010A8DF80010C0B28DF823
:103E00000100411960684289914211D82168007807
:103E10006B46097E0222FFF7E5F948B92068EAB24D
:103E20003346417D60680078FFF7DCF9002800D058
:103E30003846F8BD1800002010B588B0694604A8BF
:103E4000FFF740FD072832D107A8FFF7AFFA049823
:103E500000F0C2F907990C4600F0EAF900F080F989
:103E60000490059800F0B8F9214600F0E1F900F05F
:103E700077F90590069800F0AFF9214600F0D8F9DF
:103E800000F06EF9069004A8FEF712FD03A8FFF7F4
:103E900051FABDF80C00009941430091019941434A
:103EA00001910299414368460291FEF763FC08B014
:103EB00010BD0000F8B5144C0146224694F8246069
:103EC000D2E9000200235D1E56B179B1022111E052
:103ED000C17B10786B460122FFF784F968B90EE0C8
:103EE000A67A56B111B1617C61B902E08DF800305B
:103EF000EEE701218DF80010EAE72846F8BD9DF8AD
:103F0000000060740020F8BD1800002090EA010F46
:103F100048BF81F0004100F15E82421A3CBF801A26
:103F200089184FEAD0524FF07F4C1CEA410FA2EBA8
:103F3000D15318BF9CEA026F00F03B804FF0004C59
:103F40004CEA00204CEA012121FA03FC10EB0C0C96
:103F50001ED202F1FF325FEA1C2040EBC25038BF94
:103F600070471CF07F0F4FEA400C18BFBCF17F4F29
:103F700038BF7047C3F12003994008BF20F001000B
:103F8000BCF17F4F38BF7047A0F1C04000F017BAB6
:103F90004FEA3C00000A40EBC25028BF1CF0FF0F64
:103FA0004FEA400CE6D018BFBCF17F4F38BF7047D6
:103FB000EAE79CEA026F05D010EA5C0F08BF00F048
:103FC0000040704710B500F0B4F900BF64FBBE3E7E
:103FD000014800F06EBA00BF0000C07F4FF47F0CB4
:103FE0001CEAD0121EBF1CEAD11392EA0C0F93EA0E
:103FF0000C0F00F0858090EA010F48BF42F48072F8
:1040000040F4000C41F400002CF07F4120F07F4090
:1040100000B58142A2EB03020FF2081CACEB504E3C
:10402000C0F100009EF800E04FEA4E0E00FB0EFCCF
:1040300038BF49004FEA2C1C02F5FA020CFB0EF3C4
:104040004FEACE1E4FEA112C4FEAC1210EEB635E00
:1040500042EB22420EFB0CFC4FEA1C5300FB031107
:104060004FEA112C4FEA01310EFB0CFC4FEADC4CFD
:1040700000FB0C11C14228BF09184CEB03335DF85B
:1040800004EB10EB410143EBC250B2F57C0F38BF9B
:10409000704729D512F0F00F1CBF00F1C04000F0AE
:1040A00000407047008182838485868788898B8C55
:1040B0008D8E8F919293959697999A9C9D9FA0A291
:1040C000A3A5A7A8AAACAEB0B2B3B5B7B9BCBEC0E1
:1040D000C2C5C7C9CCCED1D4D7D9DCDFE2E6E9EC82
:1040E000F0F3F7FAFE0000004FEA400C0CF1807C80
:1040F000BCF17E4F28BF7047B0F1C04000F05FB9FF
:1041000090EA010F0CEAD11348BF42F48072624575
:1041100038BF634507D213F47F0F16D080EA010041
:1041200000F00040704710B500F003F9097EFC3E36
:1041300000F005B880EA010000F00040704780EA16
:10414000010000F0004000F03AB912F47F0F04BF04
:104150000248704780EA010000F031B90000C07FDA
:1041600041000B0ED3F19E0208D950F400034FEA30
:10417000032323FA02F048BF4042704710B500F015
:10418000D8F800BF49922480002070476FF00042A9
:1041900082EA200070470000C10DD1F19E0206DBCB
:1041A0004FEA002343F0004323FA02F07047004235
:1041B00007D54FEA4001B1F1FE4F02D24FF00000A7
:1041C000704710B500F0B5F8499224800020704780
:1041D0006FEA20007047000010F0004148BF4042E5
:1041E000B0FA80F310FA03F2C3F19D030BD051EA49
:1041F000C35101EB1220530638BF704700F1010094
:1042000008BF20F001007047B0FA80F310FA03F203
:10421000C3F19D030AD0D90501EB1220530638BF24
:10422000704700F1010008BF20F001007047000056
:104230004FF47F0C1CEAD0121EBF1CEAD11392EA85
:104240000C0F93EA0C0F00F0478090EA010F48BF73
:1042500042F480724FF0004C4CEA00204CEA0121FD
:1042600002EB0302A0FB0113A2F50002002918BF14
:1042700043F001035B0028BF4FEA330342EB2242C5
:104280005FEA132C4CEBC2502EBFBCEB436FB2F570
:104290007C0F70474FEA036CBCF1004F08BF20F061
:1042A0000100B2F57C0F38BF70470BD582F0FF02DA
:1042B00012F5803FC8BF704700F1C040D8BF00F082
:1042C0000040704700F5000C5FEA4C0C48BF704797
:1042D000B0F1C04000F073B890EA010F0CEAD113BE
:1042E00048BF42F48072624538BF634504D280EA19
:1042F000010000F00040704710B500F01AF800BF50
:104300008900013E00F007B800F009B85FEA410CEF
:104310005FEA1C6C08D080EA010000F050B85FEA48
:10432000400C5FEA1C6CF6D14FF00040A0F5800015
:1043300070470EF1020E2EF0030E5EF8044B24427D
:1043400004D44FEA4102B2F17F4F11D84FEA400343
:10435000B3F17F4F0CD80ED14FEAD07CB2F17F4F32
:104360000CEB4C0C0CF1020C08BF4CEBD17C04E0C4
:104370004FF0080C01E04FEAD17C0CEB4C0324FA1F
:1043800003F404F00704B4F1040C06D20EEB840C21
:10439000BDE810404CF0010C6047DFE80CF0070866
:1043A00002024FF00040A0F5800010BD0846420018
:1043B00018BFD2F1807288BF00F0004010BDFF210D
:1043C00041EAD050C005704790EA010F48BF81F024
:1043D00000413FF5A2AD421A04D882F00042A0EBA2
:1043E000020011444FEAD0524FF07F4C1CEA410FBB
:1043F000A2EBD15318BF9CEA026F4AD04FF0004C99
:104400004CEA00204CEA012121FA03FCB0EB0C0C31
:104410000FD412F0FE0F36D05FEA4C001DD500120B
:1044200040EBC25038BF70471CF03F0F18BF7047B9
:104430000BE0A2F101025FEA1C2040EBC25038BF42
:1044400070471CF07F0F18BF7047C3F120039940DD
:1044500014BF401E20F00100704780084FEA12236D
:1044600008BF7047B0FA80FCA2EB0C02CCF1280C1C
:1044700060FA0CF093EA122F04BF00EBC2507047B1
:104480004FEAC3707047130A5FEADC1008BF704739
:10449000F6E79CEA026F04D010EA5C0F08BF002028
:1044A000704710B5FFF745FF40DFF63E81F0004052
:1044B00070470CF00F03092B08BF082000F0518053
:1044C0000A2B0BD0082B18BF704708BF1CF0400FF9
:1044D0000AD04FF000004FF0000170471CF0400F71
:1044E00018BF4FF0004070471CF0100F08D020F0AC
:1044F000704300F07F4242EAD3014FEA43707047B5
:1045000000F0604021F07F4242EA000201F07F406B
:1045100040EA727070474FF0FF0212EAD0521CBF9F
:1045200092F0FF038B42C2BFD14200EBC1507047F3
:10453000002A0AD0002B0BD0002900F00040A4BFB5
:1045400040F0FE4040F40000704700F0004070472B
:1045500043024FF00B0C18BF4CF0806C7FF438AD69
:1045600070471CF4801F11D01CF4E02F03D06FEAB9
:10457000CC31490070474FF04050EFF3008222F0F9
:10458000704242EA000282F3008870474FF0000058
:104590007047010202030405060708090A0B0C0D07
:1045A0000E0F1010000000000000000001020304C4
:1045B000060708096800000476005401F7FD0001B1
:1045C00075191A0C6A231B1C1F207274433B413857
:1045D000393A6B6C376F06246D6E700083000000F3
:1045E0000008000000010018320005000000204112
:1045F0000000D242295C0F3E9A99993E3333733FB3
:10460000295C0F3E00007000000000240000000242
:104610000003000000650054FFEF0000FA80000B6B
:1046200012820001030C30C30E8C8CE914D54002B9
:1046300013710F8E3883F8833000F883258EF8834A
:104640003000F883FFFFFFFF0FFEA9D6240004000F
:104650001A8279A10000003CFFFF0000001000005A
:1046600038836FA2003E03304000000002CAE30915
:104670003E8000002000000000000000400000001C
:1046800060000000000C0000000C186E0000069294
:104690000A16C0DFFFFF0256FD8CD377FFE1C496F8
:1046A000E0C5BEAA00000000FFFF0B2B000016575C
:1046B000000003594000000000001DFA00026C1DBC
:1046C000000000003FFFDFEB003EB3B6000D227894
:1046D00000002F3C00000000001942B5000039A284
:1046E0000000B365D90E9FC91DCF4C3430000000C7
:1046F000500000003BB67AE80064000000C80000EB
:1047000000000000100000001000FA921000225E6D
:10471000000D229F0001000000320000FF46000053
:1047200063D400001000000004D6000004CC000098
:1047300004CC0000000010720000004000000000E7
:104740000000000000060002000500070000000055
:104750000064000000000000000000050005006487
:1047600000200000000000000000000000004000E9
:104770000000030000000032F8980000FF65000010
:10478000830F0000FF9BFC00000000000000000001
:104790000000000000000000000000000000000019
:1047A0000000000000000000000000000000000009
:1047B0000000100040000000000000060000B26A87
:1047C000000200000001FB830068000000D9FC002B
:1047D0007CF1FF830000000000650000006403E836
:1047E00000640028000000250000000016A0000062
:1047F0000000100000001000002F0000000001F475
:104800000000100000280000FFFF4581FFFFFA7242
:104810000000000000000000004400050005BAC6CA
:10482000004778A200000001000000000000060020
:10483000000000140000254D002F706D000005AE33
:10484000000C02D00000000000000000000000008A
:1048500000000000001B000000000000000000003D
:1048600000000000006400000008000000000000DC
:104870000000000000000000000000000000000038
:104880000000000000000000000000000000000028
:104890000000000000000000000000000000000018
:1048A0000000000000000000000000000000000008
:1048B00000000000000000000000000000000000F8
:1048C00000000000001B00000000000000000000CD
:1048D000000E000E00000AC70004000000000032B5
:1048E000FFFFFF9C00000B2B0000000200000001F6
:1048F00000000064FFE50000000000000000000070
:1049000000000000000000010000000000010000A5
:104910000000000000018000000180000001800014
:10492000002426D300000000000000000006001054
:104930000096003C000000000000000000000000A5
:10494000000000000C0A4E68CDCF77095016675959
:10495000C619CE8200000000000000000000000028
:1049600000000000000000000000000017D78400D5
:10497000030000000000000000000000C7938F9DAE
:104980001E1B1C19000000000000000000000000B9
:104990000000000000000000000000000203188575
:1049A00000004000000000030000000300000000C1
:1049B00000000000400000000000000000000000B7
:1049C00000000000000000000000000000000000E7
:1049D00000000000000000000000000000000000D7
:1049E0000000000000000000677DDF7E72902E5501
:1049F0004CF6E68800000000000000000000000007
:104A000000000000D8DCB4B8B0D8B9ABF3F8FAB302
:104A1000B7BB8E9EAEF132F51BF1B4B8B08097F102
:104A2000A9DFDFDFAADFDFDFF2AAC5CDC7A90CC986
:104A30002C97F1A989264666B28999A92D557DB092
:104A4000B08AA896365676F1BAA3B4B280C0B8A898
:104A50009711B28398BAA3F0240844106418B2B92D
:104A6000B49883F1A329557DBAB5B1A38393F0001F
:104A70002850F5B2B6AA839328547CF1B9A3829347
:104A800061BAA2DADEDFDB819AB9AEF5606870F157
:104A9000DABAA2DFD9BAA2FAB9A38292DB31BAA2FA
:104AA000D9BAA2F8DF85A4D0C1BBAD83C2C5C7B84F
:104AB000A2DFDFDFBAA0DFDFDFD8D8F1B8AAB38D7D
:104AC000B4980D355DB2B6BAAF8C96198F9FA70E0C
:104AD000161EB49AB8AA872C547CBAA4B08AB69190
:104AE000325676B28494A4C808CDD8B8B4B0F1993F
:104AF00082A82D557D98A80E161EA22C547C92A437
:104B0000F02C5078F184A898C4CDFCD80DDBA8FC1B
:104B10002DF3D9BAA6F8DABAA6DED8BAB2B6869616
:104B2000A6D0F3C841DAA6C8F8D8B0B4B882A89223
:104B3000F52C548898F135D9F418D8F1A2D0F8F9A9
:104B4000A884D9C7DFF8F883C5DADF69DF83C1D865
:104B5000F40114F1A8824EA884F311D182F5D99200
:104B6000289788F109F41C1CD884A8F3C0F9D1D97E
:104B70009782F129F40DD8F3F9F9D1D982F4C2035F
:104B8000D8DEDF1AD8F1A2FAF9A88498D9C7DFF8DD
:104B9000F8F883C7DADF69DFF883C3D8F40114F1CA
:104BA00098A8822EA884F311D182F5D992509788C3
:104BB000F109F41CD884A8F3C0F8F9D1D99782F18F
:104BC00049F40DD8F3F9F9D1D982F4C403D8DEDF62
:104BD000D8F1AD8898CCA809F9D98292A8F57CF1D2
:104BE000883ACF944A6E98DB6931DAADF2DEF9D8B3
:104BF0008795A8F221D1DAA5F9F417D9F1AE8ED0B4
:104C0000C0C3AE82C684C3A88595C8A588F2C0F18A
:104C1000F4010EF18E9EA8C63E56F554F18872F44A
:104C20000115F19845856EF58E9E0488F142985ADB
:104C30008E9E068869F4011CF1981E1108D0F504B7
:104C4000F11E970202983625DBF9D985A5F3C1DA62
:104C500085A5F3DFD88595A8F309DAA5FAD882925D
:104C6000A8F578F1881A849F26889821DAF41DF334
:104C7000D8879F39D1AFD9DFDFFBF9F40CF3D8FA2D
:104C8000D0F8DAF9F9D0DFD9F9D8F40BD8F3879F47
:104C900039D1AFD9DFDFF41DF3D8FAFCA869F9F9EF
:104CA000AFD0DADEFAD9F88F9FA8F1CCF398DB45C4
:104CB000D9AFDFD0F8D8F18F9FA8CAF38809DAAF4F
:104CC0008FCBF8D8F2AD978D0CD9A5DFF9BAA6F342
:104CD000FAF412F2D8950DD1D9BAA6F3FADAA5F200
:104CE000C1BAA6F3DFD8F1BAB2B68696A6D0CAF397
:104CF00049DAA6CBF8D8B0B4B8D8AD84F2C0DFF1A9
:104D00008FCBC3A8B2B68696C8C1CBC3F3B0B48864
:104D100098A821DB718D9D71859521D9ADF2FAD8C6
:104D20008597A828D9F408D8F28D29DAF405D9F2A4
:104D300085A4C2F2D8A88D9401D1D9F411F2D887F4
:104D400021D8F40AD8F28498A8C801D1D9F411D88E
:104D5000F3A4C8BBAFD0F2DEF8F8F8F8F8F8F8F82A
:104D6000D8F1B8F6B5B9B08A95A3DE3CA3D9F8D886
:104D70005CA3D9F8D87CA3D9F8D8F8F9D1A5D9DFA4
:104D8000DAFAD8B18530F7D9DED8F830ADDADED826
:104D9000F2B48C99A32D557DA083DFDFDFB591A000
:104DA000F629D9FBD8A0FC29D9FAD8A0D051D9F836
:104DB000D8FC51D9F9D879D9FBD8A0D0FC79D9FA47
:104DC000D8A1F9F9F9F9F9A0DADFDFDFD8A1F8F80D
:104DD000F8F8F8ACDEF8ADDE8393AC2C547CF1A887
:104DE000DFDFDFF69D2CDAA0DFD9FADB2DF8D8A8BB
:104DF00050DAA0D0DED9D0F8F8F8DB55F8D8A8788A
:104E0000DAA0D0DFD9D0FAF8F8F8F8DB7DF8D89C32
:104E1000A88CF530DB38D9D0DEDFA0D0DEDFD8A813
:104E200048DB58D9DFD0DEA0DFD0DED8A868DB7041
:104E3000D9DFDFA0DFDFD8F1A888902C547C98A8B8
:104E4000D05C38D1DAF2AE8CDFF9D8B087A8C1C116
:104E5000B188A8C6F9F9DA36D8A8F9DA36D8A8F9A7
:104E6000DA36D8A8F9DA36D8A8F9DA36D8F78D9D27
:104E7000ADF818DAF2AEDFD8F7ADFA30D9A4DEF922
:104E8000D8F2AEDEFAF983A7D9C3C5C7F1889BA7CC
:104E90007AADF7DEDFA4F8849408A797F300AEF2AA
:104EA0009819A488C6A39488F632DFF28393DB09AD
:104EB000D9F2AADFD8D8AEF8F9D1DAF3A4DEA7F197
:104EC000889B7AD8F38494AE19F9DAAAF1DFD8A8CE
:104ED00081C0C3C5C7A39283F628ADDED9F8D8A395
:104EE00050ADD9F8D8A378ADD9F8D8F8F9D1A1DA6E
:104EF000DEC3C5C7D8A18194F818F2B089ACC3C588
:104F0000C7F1D8B8B4B09786A8319B069907AB977C
:104F100028889BF00C201440B0B4B8F0A88A9A28D6
:104F20005078B79BA829517924705944693864484E
:104F300031F1BBAB88002C547CF0B38BB8A80428AB
:104F40005078F1B088B49726A85998BBABB38B02C0
:104F5000264666B0B8F08A9CA82951798B295179E8
:104F60008A2470598B2058718A4469388B3940687B
:104F70008A6448318B30496088F1AC002C547CF055
:104F80008CA804285078F1889726A85998AC8C02F0
:104F9000264666F0899CA8295179247059446938BD
:104FA000644831A98809205970AB11384069A819A3
:104FB0003148608CA83C415C207C00F187981986C0
:104FC000A86E767EA999882D557DD8B1B5B9A3DF95
:104FD000DFDFAED0DFAAD0DEF2ABF8F9D9B087C4FC
:104FE000AAF1DFDFBBAFDFDFB9D8B1F1A3978E60E5
:104FF000DFB084F2C8F8F9D9DED89385F14AB183DD
:10500000A308B5839A0810B79F10D8F1B0BAAEB014
:105010008AC2B2B68E9EF1FBD9F41DD8F9D90CF133
:10502000D8F8F8AD61D9AEFBD8F40CF1D8F8F8ADEA
:1050300019D9AEFBDFD8F416F1D8F8AD8D61D9F4EB
:10504000F4ACF59C9C8DDF2BBAB6AEFAF8F40BD815
:10505000F1AED0F8AD51DAAEFAF8F1D8B9B1B6A3E5
:10506000839C08B9B1839AB5AAC0FD3083B79F105D
:10507000B58B93F20202D1ABDADED8F1B080BAABD5
:10508000C0C3B284C1C3D8B1B9F38BA391B609B47C
:10509000D9ABDEB0879CB9A3DDF1B38B8B8B8B8B47
:1050A000B087A3A3A3A3B28BB69BF2A3A3A3A3A38E
:1050B000A3A3A3A3A3F1B087B59AA3F39BA3A3DCF7
:1050C000BAACDFB9A3A3A3A3A3A3A3A3A3A3A3A33E
:1050D000A3A3A3A3D8D8D8BBB3B7F1AAF9DAFFD951
:1050E000809AAA28B48098A720B79787A86688F0E6
:1050F0007951F1902C870CA781976293F0717160C0
:1051000085940129517990A5F1284C6C870C95184C
:105110008578A38390284C6C886CD8F3A28200F227
:1051200010A8921980A2F2D926D8F188A84DD948A2
:10513000D896A83980D93CD89580A839A68698D920
:105140002CDA87A72CD8A8899519A980D938D8A88E
:105150008939A980DA3CD8A82EA83990D90CD8A8CA
:10516000953198D90CD8A809D9FFD801DAFFD8957C
:1051700039A9DA26FFD890A80D8999A8108098211E
:10518000DA2ED88999A83180DA2ED8A8869631806F
:10519000DA2ED8A8873180DA2ED8A88292F34180FF
:1051A000F1D92ED8A882F31980F1D92ED882ACF388
:1051B000C0A28022F1A62EA72EA92298A829DAAC97
:1051C000DEFFD8A2F22AF1A92E8292A8F23180A69F
:1051D00096F1D900AC8C9C0C30ACDED0DEFFD88CC4
:1051E0009CACD010ACDE8092A2F24C82A8F1CAF244
:1051F00035F19688A6D900D8F1FF3A7474003A7454
:1052000074003A747400000050726F647563742007
:1052100049442072656164206173203020696E64A6
:105220006963617465732064657669636520697379
:105230002065697468657220696E636F6D70617452
:1052400069626C65206F7220616E204D505533305D
:1052500035302E0D0A0000007852000800000020B2
:105260008800000028010008005300088800002082
:10527000A007000044010008010000001000000029
:10528000000000000024F400000000000000000006
:10529000C0450008B4450008000000000000000000
:1052A00000000000000000000000000000000000FE
:1052B0000000000000000000DC45000800000000C5
:1052C0000000803F0000000000000000000000001F
:1052D00000000000000000000000000000000000CE
:1052E0000000000000000000FF000000FF000000C0
:1052F00001000000000000000000000000000000AD
:04000005080000ED02
:00000001FF
