:020000040800F2
:100000005808002089010008FF1E00081D1B000879
:10001000FD1E0008E702000821240008000000007F
:10002000000000000000000000000000031F0008A6
:10003000E902000800000000011F0008051F000879
:10004000A3010008A3010008A3010008A301000800
:10005000A3010008A3010008A3010008A3010008F0
:10006000A3010008A3010008A3010008A3010008E0
:10007000A3010008A3010008A3010008A3010008D0
:10008000A3010008A3010008A3010008A3010008C0
:10009000A3010008A3010008A3010008A3010008B0
:1000A000A3010008A3010008A3010008A3010008A0
:1000B000A3010008851F0008A3010008A301000890
:1000C000A3010008A3010008A3010008A301000880
:1000D000A3010008A3010008A301000815240008DB
:1000E000EB020008A3010008A301000800F002F8D9
:1000F00000F03AF80AA090E8000C82448344AAF188
:100100000107DA4501D100F02FF8AFF2090EBAE885
:100110000F0013F0010F18BFFB1A43F0010318473B
:100120007823000098230000103A24BF78C878C1D3
:10013000FAD8520724BF30C830C144BF04680C60ED
:10014000704700000023002400250026103A28BF35
:1001500078C1FBD8520728BF30C148BF0B60704739
:100160001FB51FBD10B510BD00F058F81146FFF7C0
:10017000F7FF02F066F900F076F803B4FFF7F2FF3C
:1001800003BC00F07DF8000009488047094800479B
:10019000FEE7FEE7FEE7FEE7FEE7FEE7FEE7FEE737
:1001A000FEE7FEE704480549054A064B7047000094
:1001B000811F0008ED0000085802002058080020A8
:1001C00058040020580400204FF0000200B51346E8
:1001D00094469646203922BFA0E80C50A0E80C5067
:1001E000B1F12001BFF4F7AF090728BFA0E80C5018
:1001F00048BF0CC05DF804EB890028BF40F8042B11
:1002000008BF704748BF20F8022B11F0804F18BF7D
:1002100000F8012B7047704770477047754600F033
:100220002BF8AE4605006946534620F00700854688
:1002300018B020B5FFF7B6FFBDE820404FF000062C
:100240004FF000074FF000084FF0000B21F00701BE
:10025000AC46ACE8C009ACE8C009ACE8C009ACE801
:10026000C0098D46704710B50446AFF300802046A4
:10027000BDE81040FFF781BF00487047F80100203B
:1002800001491820ABBEFEE72600020070470000BF
:1002900070B5044600688168C943C90717D18168F1
:1002A00021F00101816000F0D3FA05460AE000BFA9
:1002B00000F0CEFA401B022804D920688068C043B1
:1002C000C00706D020688068C043C007F0D0002077
:1002D00070BDA06A40F01000A062E06A40F001002A
:1002E000E062012070BDFEE770474FF4805000F0DF
:1002F000ADB972B6FEE70000F8B50024009490F89E
:1003000024202546012A12D0012280F824204A68A0
:100310001F23072A0DD20668776B521E02EB82025A
:1003200093409F430B6893401F43776319E002207B
:10033000F8BD06680D2A0AD2376BD21F02EB820283
:1003400093409F430B6893401F43376309E0F76A6C
:100350000D3A02EB820293409F430B6893401F4388
:10036000F7620A68072306680A2A0AD3F7680A3A76
:1003700002EB420293409F438B6893401F43F76018
:1003800008E0376902EB420293409F438B68934039
:100390001F4337610A68102A01D0112A20D1124B5D
:1003A00002689A4217D193681B0219D4936843F4E8
:1003B000000393600968102912D10C490C4A09689E
:1003C000B1FBF2F101EB8101490000E0491E00910F
:1003D0000029FBD104E0816A41F0200181620124FF
:1003E00080F824502046F8BD002401400C00002075
:1003F00040420F002DE9F0414FF0000704003D4658
:100400007ED0A06A002628B9E66284F824602046DF
:1004100000F07EF82046FFF73BFFA16AC90600D432
:1004200020B1A06A40F01000A06269E0A16A21F446
:10043000885141F00201A1626268E169237B0A43AD
:1004400047EA43010A43A1684FF48077B94209D0D3
:10045000012907D05FF0000194F814C0BCF1010F2E
:1004600002D00AE03946F7E7F3B1A36A43F020036C
:10047000A362E36A43F00103E3622368D3F804C094
:100480002CF4694C4CEA010CC3F804C021688B6859
:10049000DFF870C003EA0C0313438B60A168B94214
:1004A0000BD0012909D00CE0DFF85CC0A3690CEB8C
:1004B00043330B4343F40061DFE7218A0D05A5F5C3
:1004C00080152168CB6A23F470032B43CB6221682B
:1004D00089680E4B1940914208D1E662A16A21F069
:1004E000020141F00101A162BDE8F081A06A20F0A3
:1004F000020040F01000A062E06A40F00100E062FB
:100500000120F1E7FDF7E1FF00E0FFFFFE0E1FFF16
:1005100000B585B00021009101910291039100681E
:100520000E49884218D10E48816941F400718161F9
:10053000816901F400710491816941F004018161D4
:100540008069694600F00400049040200090032078
:100550000190044800F086F805B000BD0024014079
:10056000001002400008014010B590F82110002250
:10057000022905D00421816380F82020012010BDCC
:1005800001680B6823F00E030B6001680B6823F011
:1005900001030B6090F84030C46B012101FA03F3B2
:1005A000636080F8211080F82020104610BD000004
:1005B00010B590F821100024022903D00421816392
:1005C00001243DE001680A6822F00E020A60016819
:1005D0000A6822F001020A601A4A0168914201D1B8
:1005E000012121E0174A1432914201D110211BE070
:1005F000144A2832914201D1891515E0114A3C3242
:10060000914201D189140FE00E4A5032914202D139
:100610004FF4803108E00B4A6432914202D14FF42A
:10062000801101E04FF08071064A083A51600121C3
:1006300080F82110002180F82010416B01B188471B
:10064000204610BD0800024070470000044910B564
:100650000A68024202D00860FFF7F6FF10BD0000F2
:10066000140401402DE9F84FDFF8B8910024A9F1F6
:10067000040B23460F2709F1040AABF1040EC9E06D
:100680000125A5402A40AA427DD1674ED1F804C079
:10069000ACEB0608B44532D014DCBCF1030F3AD001
:1006A00009DCBCF1000F2AD0BCF1010F1CD0BCF159
:1006B000020F31D11DE0BCF1110F17D0BCF1120FA8
:1006C0002AD119E0B8F5881F19D006DCB8F5803FAB
:1006D00015D0B8F5801F1FD111E0B8F5001F0ED05E
:1006E000B8F5041F18D10AE0CB6815E0CB681B1DD4
:1006F00012E0CB6808330FE0CB680C330CE08B685A
:100700002BB1012B4FF0080303D0456104E0042313
:1007100002E0056100E00023FF2A01D8064601E05F
:1007200000F104064FEA840501D9A5F12005D6F8A9
:10073000008007FA05FC28EA0C0803FA05F548EAE8
:100740000508C6F800804D68ED0062D5374DAE69EA
:1007500046F00106AE61AD6924F0030605F001051F
:100760000095334D06EB050CDCF80850A607360F54
:1007700007FA06F825EA0805DFF8B880404503D1F6
:100780004FF0000817E044E0DFF8AC80404502D1AC
:100790004FF001080FE0DFF8A480404502D14FF090
:1007A000020808E0DFF89880404502D14FF00308C6
:1007B00001E04FF0040808FA06F848EA0508CCF80A
:1007C00008804D68D9F80060ED024D4601D516430A
:1007D00000E096432E604D68DAF80060AD025546A1
:1007E00001D5164300E096432E604D68DBF80060AB
:1007F000AD035D4601D5164300E096432E604D687B
:10080000DEF80060ED03754601D5164300E096431F
:100810002E60641C0D682A46E5407FF431AFBDE8C8
:10082000F88F000008040140000011100010024081
:100830000000014000080140000C01400010014090
:10084000001401400AB1016170470904FBE7000090
:1008500010B500F0CDF94FF47A71B0FBF1F0024918
:100860004968B1FBF0F010BD001000E0024881685B
:10087000027811448160704700000020074810B5DD
:10088000016841F010010160032000F073F80020BE
:1008900000F006F800F022F8002010BD0020024011
:1008A0000A4810B5016841F08071016008480021D4
:1008B0004160016841F00101016000F099F90549CA
:1008C000B0FBF1F004494860002010BDFCED00E0F1
:1008D000001000E040420F00100000200C4808B556
:1008E000816941F001018161816901F0010100919B
:1008F000C16941F08051C161C06900F08050009031
:100900000448416821F0E06141F00071416008BD98
:100910000010024000000140002809DB00F01F0227
:10092000012191404009800000F1E020C0F8001151
:1009300070470000F0B40E4B1B680C46C3F3022353
:10094000C3F10705042D00D90425191D072901D27B
:10095000002300E0DB1E012606FA05F1491E2140B6
:1009600099409E40761E16403143F0BC01F059BDBF
:100970000CED00E0064900F0070208684FF6FF039F
:10098000184040EA0220034A104308607047000004
:100990000CED00E00000FA052DE9F843054600786B
:1009A000354CC00754D0E0690026C00008D4E06987
:1009B00040F08050E061E069012600F08050009036
:1009C0002E480168C90512D40168804641F480713F
:1009D0000160FFF73DFF074605E000BFFFF738FF66
:1009E000C01B642823D8D8F80000C005F6D5206ABB
:1009F00010F4407021D0A98801F4407181421CD0CC
:100A0000206A1F49012220F440700A6000220A6017
:100A10002062C00711D0FFF71BFF074641F288385C
:100A200008E000BFFFF714FFC11B414502D90320B6
:100A3000BDE8F883206A8007F4D5206A696820F44D
:100A40004070084320621EB1E06920F08050E061F0
:100A50002878800705D56068A96820F440400843DD
:100A600060602878C00605D56068E96820F48000D9
:100A7000084360600020DBE7001002400070004087
:100A8000400442422DE9F0470F46050061D0434E35
:100A9000306800F00700B84209D2306820F0070043
:100AA00038433060306800F00700B84251D1286800
:100AB0003B4C810712D5400703D5606840F4E060E5
:100AC00060602878000703D5606840F4605060607B
:100AD0006068A96820F0F000084360602878C007CB
:100AE00028D06868012810D02168022810D0890712
:100AF00000292EDA616821F0030101436160FFF7EC
:100B0000A7FE804641F288390DE021688903EFE7AE
:100B10008901EDE7FFF79CFEA0EB0801494502D9EA
:100B20000320BDE8F0876068696800F00C00B0EB56
:100B3000810FEFD1306800F00700B8420BD9306860
:100B400020F0070038433060306800F00700B842FA
:100B500001D00120E5E72878400705D56068E968FD
:100B600020F4E060084360602878000706D56068DC
:100B7000296920F4605040EAC100606000F038F854
:100B80006168084AC1F30311515CC8400649086016
:100B900006480068FFF784FE0020C2E700200240FC
:100BA000001002407E2400080C00002004000020F9
:100BB0000448054900684968044AC1F30221515CB0
:100BC000C84070470C000020001002408E2400082E
:100BD0000448054900684968044AC1F3C221515CD0
:100BE000C84070470C000020001002408E2400080E
:100BF0000E4A51680E4801F00C03042B11D0082B4B
:100C00000FD10C48C1F38343C903C05C0AD55168B6
:100C1000084AC1F34041921E515C054A5043B0FB63
:100C2000F1F070470449484370470000001002404B
:100C300000127A006E24000800093D002DE9F84FEB
:100C4000040070D02078C04DC00749D06868C0F358
:100C50008100012807D06868C0F38100022809D10B
:100C60006868C00306D52868800339D56068002805
:100C7000E7D035E06068B0F5803F0BD010B1B0F53B
:100C8000A02F11D0286820F480302860286820F434
:100C9000802002E0286840F480302860606890B1CD
:100CA000FFF7D6FD06460AE0286840F48020286059
:100CB000F0E700BFFFF7CCFD801B642873D82868DD
:100CC0008003F7D50CE0FFF7C3FD064605E000BF43
:100CD000FFF7BEFD801B6428F0D828688003F7D496
:100CE00020789A4E80074FF001094FF0000839D55F
:100CF000686810F00C0F07D06868C0F38100022804
:100D000009D16868C00306D42868800714D5206913
:100D1000012808D110E02069B0B1C6F80090FFF7B3
:100D200097FD074605E00AE1FFF792FDC01B022888
:100D3000C4D828688007F7D52868616920F0F800D2
:100D400040EAC10028600DE0C6F80080FFF780FD92
:100D5000074604E0FFF77CFDC01B022823D8286863
:100D60008007F7D4207800072CD57948A169D9B13C
:100D7000C0F80090FFF76CFD074604E0FFF768FD40
:100D8000C01B02280FD8686A8007F7D571484FF456
:100D9000FA510068B0FBF1F0009000BF0098411ECE
:100DA0000091FAD20EE080E0C0F80080FFF750FD1D
:100DB000074604E0FFF74CFDC01B022875D8686A9F
:100DC0008007F7D42078400760D5E8690027C00085
:100DD00008D4E86940F08050E861E869012700F034
:100DE000805000905C480168C90513D401688346AF
:100DF00041F480710160FFF72BFD824606E000BFE1
:100E0000FFF726FDA0EB0A0064284ED8DBF80000AF
:100E1000C005F5D5E06801280AD008B1052813D02F
:100E2000286A20F001002862286A20F0040002E00D
:100E3000286A40F001002862E06841F2883B98B1DE
:100E4000FFF706FD82460BE0286A40F004002862A6
:100E5000EEE700BFFFF7FCFCA0EB0A0159455AD8AA
:100E6000286A8007F6D50CE0FFF7F2FC824605E021
:100E7000FFF7EEFCA0EB0A0159454CD8286A800721
:100E8000F6D41FB1E86920F08050E861E06988B3CA
:100E90006968C1F38101022944D00228C6F8608044
:100EA00004D0FFF7D5FC044638E034E0FFF7D0FC6F
:100EB000074604E0FFF7CCFCC01B02282BD82868AB
:100EC0008001F7D4206AB0F5803F05D16868A16839
:100ED00020F4003008436860D4E9080108436968D9
:100EE00021F4741108436860C6F86090FFF7B0FC05
:100EF000044606E025E000BFFFF7AAFC001B02281D
:100F000009D828688001F7D51BE000BFFFF7A0FCD7
:100F1000001B022802D90320BDE8F88F2868800151
:100F2000F4D40EE00128F7D06868226A00F480311A
:100F3000914204D1616A00F47010884201D001200E
:100F4000EAE70020E8E7000000100240000042420B
:100F5000800442420C00002000700040704770473F
:100F600010B590F83C20012A22D0012280F83C20C4
:100F7000CA688C6822F4407222434C6822F4806272
:100F800022430C6822F4006222430C6922F480524E
:100F900022434C6922F400522243C969002322F4FF
:100FA00080420A4301684A6480F83C30002010BD4A
:100FB000022010BD70B590F83C20012A26D00124F3
:100FC00080F83C40022280F83D2003685A689D6802
:100FD00022F070060A6832435A600D4B02689A424A
:100FE00008D0B2F1804F05D00A4B9A4202D00A4B8A
:100FF0009A4204D1496825F080031943916080F832
:101000003D40002180F83C10084670BD022070BDB4
:10101000002C0140000400400008004010B504000E
:1010200003D094F83D0010B107E0012010BD00206E
:1010300084F83C00204600F01FF8022084F83D00B0
:10104000211D206800F0A4FF012084F8460084F8E8
:101050003E0084F83F0084F8400084F8410084F8A2
:10106000420084F8430084F8440084F8450084F882
:101070003D00002010BD000000B585B000210091AA
:101080000191029103910068114988421ED11148D3
:10109000C16941F00201C161C16901F0020104911D
:1010A000816941F0080181618069694600F00800AA
:1010B0000490012000900848FFF7D4FA0022012193
:1010C0001D20FFF737FC1D20FFF726FC05B000BDF3
:1010D0000004004000100240000C014070B50446BE
:1010E00090F83C000025012817D0012684F83C60C8
:1010F000022084F83D002068826822F0770222F402
:101100007F4282600868502838D00DDC20284FD0FC
:1011100005DC90B3102811D14AE0022070BD3028C0
:1011200046D040280AD13BE060282FD070280DD04F
:10113000B0F5805F03D0B0F5005F12D0012584F8D0
:101140003D60002084F83C00284670BDCB68D1E9A2
:101150000121206800F052FF2068816841F077018A
:1011600009E0CB68D1E90121206800F047FF206841
:10117000816841F480418160E1E719E0CA6849680B
:10118000206800F0EFFF5021206806E0CA68496837
:10119000206801F025F86021206800F039FFCEE7D3
:1011A000CA684968206800F0DDFF40212068F4E744
:1011B000226801461046F0E72DE9F0410D46040093
:1011C00003D094F83D0018B108E00120BDE8F0819B
:1011D000002084F83C00204600F040F8022084F80B
:1011E0003D002068816844F2070291438160211D1F
:1011F000206800F0CDFE226890689169166A2B681D
:10120000AF69034340F20330814341EA0721A868F4
:10121000EF6908434FF6FC418843E96840EA07203C
:10122000014328692F6A000140EA073008436968D2
:101230006D6926F0220646EA051529439360226867
:10124000906154F8460B0162012004F81F09E07513
:101250002076E0762077A0750020B7E700B585B04E
:101260000021009101910291039101681A48B1F1A6
:10127000804F1BD0194A914216D1C16941F0040137
:10128000C161C16901F004010491816941F0080163
:1012900081618069694600F008000490C0200090D8
:1012A0000F4800BFFFF7DEF905B000BDC16941F08E
:1012B0000101C161C16901F001010491816941F03D
:1012C000040181618069694600F0040004900320F4
:1012D00000900448E6E700000010024000080040CB
:1012E000000C01400008014070472DE9F04105461F
:1012F00090F83C0000260C46012810D0012085F80B
:101300003C0072B1042A1CD0082A2CD00C2A50D0E0
:101310000126002085F83C003046BDE8F08102201F
:10132000FBE7D4E90012E368286800F02DFF286885
:10133000816921F00C01816128688169A2681143EB
:101340000FE0D4E90012E368286800F05BFF28682A
:10135000816921F44061816128688169A26841EA5C
:1013600002218161D5E72868D4E9002C277B036A34
:10137000016A21F480710162C16923F4007321F0D4
:10138000030141EA0C0121F0F00C39074FF400771A
:101390004CEA116107EA02221A43C161026228681D
:1013A000C16921F00C01C1612868C169A2681143BB
:1013B0002BE02868D4E90021E768036AD0F820C050
:1013C0002CF4805CC0F820C0D0F81CC023F400537B
:1013D0002CF4407C4CEA012121F4704C4FF6FF7153
:1013E00001EA07314FF4005741EA0C0107EA0232E3
:1013F0001A43C16102622868C16921F44061C16178
:101400002868C169A26841EA0221C16181E710B57B
:10141000040003D094F83D0010B107E0012010BD96
:10142000002084F83C00204600F01EF8022084F8DA
:101430003D00211D206800F0ABFD012084F846002E
:1014400084F83E0084F83F0084F8400084F84100AE
:1014500084F8420084F8430084F8440084F845008E
:1014600084F83D00002010BD704770B50446006848
:1014700001694FF00005C943890715D4C168C94304
:10148000890711D4E91E0161012020772068806955
:101490008007204602D0FFF727FF04E000F0BEF8E7
:1014A000204600F063F9257720680169C9434907A0
:1014B00017D4C168C943490713D46FF0040101610F
:1014C000022020772068806910F4407F204602D0F7
:1014D000FFF70AFF04E000F0A1F8204600F046F90B
:1014E000257720680169C943090716D4C168C94333
:1014F000090712D46FF008010161042020772068E9
:10150000C0698007204602D0FFF7EEFE04E000F03D
:1015100085F8204600F02AF9257720680169C9433B
:10152000C90617D4C168C943C90613D46FF01001A6
:101530000161082020772068C06910F4407F2046B0
:1015400002D0FFF7D1FE04E000F068F8204600F07A
:101550000DF9257720680169C943C90708D1C16819
:10156000C943C90704D1891E0161204600F0FFF874
:1015700020680169C943090609D4C168C94309063D
:1015800005D46FF0800101612046FFF7E7FC206879
:101590000169C943490609D4C168C943490605D44C
:1015A0006FF040010161204600F0E2F82068016917
:1015B000C94389060BD4C168C943890607D46FF0B3
:1015C000200101612046BDE87040FFF7C8BC70BD36
:1015D00000B585B00021009101910291039100684E
:1015E0000B49884212D10B48816941F004018161A5
:1015F0008069694600F0040004904FF41060009088
:101600000220019003900448FFF72CF805B000BDBC
:10161000002C01400010024000080140704770B5E6
:10162000044690F83C0000260D4601280FD001200A
:1016300084F83C006AB1042A1DD0082A2FD00C2A55
:101640003FD00126002084F83C00304670BD0220C7
:1016500070BD206800F0E4FC2068816941F0080159
:1016600081612068816921F00401816120688169BC
:101670002A69114311E0206800F0FAFC20688169B2
:1016800041F4006181612068816921F48061816198
:10169000206881692A6941EA02218161D2E72068D4
:1016A00000F012FD2068C16941F00801C1612068A5
:1016B000C16921F00401C1612068C1692A6911432F
:1016C00011E0206800F02CFD2068C16941F4006140
:1016D000C1612068C16921F48061C1612068C1696C
:1016E0002A6941EA0221C161ACE710B5040003D0C8
:1016F00094F83D0010B107E0012010BD002084F8EF
:101700003C00204600F01EF8022084F83D00211D18
:10171000206800F03DFC012084F8460084F83E007B
:1017200084F83F0084F8400084F8410084F84200C7
:1017300084F8430084F8440084F8450084F83D00B0
:10174000002010BD08B500680649884208D1064847
:10175000816941F400618161806900F4006000905A
:1017600008BD0000002C0140001002407047704787
:101770007047704770470000F8B501680446086874
:10178000CA684B6910F00F0F4FF0000559D003F0F5
:10179000010602F49077374365D0C10705D0D10523
:1017A00003D5616C41F001016164410705D5D9079A
:1017B00003D0616C41F002016164810705D5D9074E
:1017C00003D0616C41F004016164010707D502F0A8
:1017D0002001314303D0616C41F008016164616C08
:1017E00000293AD0800604D5900602D5204600F0A4
:1017F00053FD20684069616CC0F38010090700D474
:1018000060B3204600F021FD20684069400621D5E4
:101810002068143050E8001F21F0400140E8001219
:10182000002AF5D1E06BA8B16D494163E06BFEF78A
:10183000BFFE002811D0E06B416B01B0BDE8F04065
:10184000084783060FD593060DD52046BDE8F8401E
:1018500000F022BD2046FFF78DFFF8BD2046FFF7C0
:1018600089FF6564F8BD266B2023012E7CD1C60656
:101870007AD5D60678D508684868009048694FF050
:101880000206400640D5E16B086840680004000C81
:10189000E8D0A28D8242E5D9E085886920282DD044
:1018A00020680C3050E8001F21F4807140E80012DD
:1018B000002AF5D12068143050E8001F21F0010102
:1018C00040E80012002AF5D12068143050E8001FCB
:1018D00021F0400140E80012002AF5D184F842309E
:1018E000256320680C3050E8001F21F0100140E80B
:1018F0000012002AF5D1E06BFEF736FE6663A08D7C
:10190000E18D401A81B22AE0A08DE18D401A81B2AA
:10191000E08D0028A6D00029A4D022680C3252E81D
:10192000000F20F4907042E80007002FF5D12068E6
:10193000143050E8002F22F0010240E80027002F69
:10194000F5D184F84230256320680C3050E8002F30
:1019500022F0100240E80023002BF5D166632046F8
:10196000FFF707FFF8BDFFE705062BD5150629D5BC
:1019700094F841002128F5D1A068B0F5805F01D12D
:101980002069B0B1206A411C21622168007848605A
:10199000E08C401E0004000CE084E3D12068C168A4
:1019A00021F08001C1602068C16841F04001C16040
:1019B000D8E7206A0088C0F308004860206A801CCD
:1019C0002062E5E74006CDD55006CBD5CA68204653
:1019D00022F04002CA6084F8413000F09EF8C1E76E
:1019E0003B22000870B5040004D094F841000025A3
:1019F00010B106E0012070BD84F84050204600F090
:101A000023F8242084F841002068C16821F40051A3
:101A1000C160204600F0A2FC2068016921F49041D9
:101A200001612068416921F02A0141612068C16893
:101A300041F40051C1606564202084F8410084F8BD
:101A400042006563002070BD70B586B0002400942C
:101A500001940294039403682B482A4E0221032226
:101A60000515B34221D1836943F4804383618369BF
:101A700003F480430493836943F004038361806922
:101A8000224E00F0040004900802CDE90001039208
:101A900069463046FEF7E6FDCDE90054694630461A
:101AA0000294FEF7DFFD06B070BD194EB342FAD1C5
:101AB000C36943F48023C361C36903F4802304939F
:101AC000836943F0080383618069CDE9005100F028
:101AD0000800CDE903200F4D69462846FEF7C2FDF8
:101AE000E814CDE90004694628460294FEF7BAFDE1
:101AF000002201212720FEF71DFF2720FEF70CFF03
:101B0000D1E7000000380140001002400008014009
:101B100000480040000C014070477047FEE700009D
:101B20003EB5002411480094019402940E4984604B
:101B3000016004730475012505614FF46021446060
:101B4000C161FEF757FC08B1FEF7D3FB0620CDE9D3
:101B50000005694602940548FEF7CEFB002801D037
:101B6000FEF7C7FB3EBD0000002401401800002026
:101B70002DE9F04786B000243A480094019402947D
:101B80000394816941F020018161816901F02001A4
:101B90000491816941F004018161816901F00401CE
:101BA0000491816941F0080181618069DFF8B8A082
:101BB00000F008000490012248F210015046FEF7A0
:101BC00041FEDFF8A89047F23A37012239464846ED
:101BD000FEF738FE4FF40046002231464846FEF735
:101BE00031FE102001254FF00208CDE90005CDE9B6
:101BF000024869465046FEF735FD20208DE8310049
:101C000069465046FEF72EFDCDE900750327CDE964
:101C1000024769464846FEF725FDCDF80C80009640
:101C2000CDE9015469464846FEF71CFD28030090A3
:101C30000F48CDE9010469465046FEF713FD0397AE
:101C40000096CDE9015469465046FEF70BFD00228F
:101C500002212820FEF76EFE2820FEF75DFE06B06A
:101C6000BDE8F0870010024000080140000C014070
:101C70000000111010B592B000240F941C2168468A
:101C80001094FEF7A1FA202107A8FEF79DFA244838
:101C90002249C0E9001441F61F41C0E90241046134
:101CA00044618461FFF721FD08B1FEF722FB0F9428
:101CB0000FA91B481094FFF77DF908B1FEF719FB37
:101CC0006020CDE90004029403940494059400225A
:101CD000694613480694FFF7A2FC08B1FEF709FB1A
:101CE0000C2269460E48FFF79AFC08B1FEF701FB8B
:101CF0000794089409944FF400500A94CDE90B40DE
:101D000007A907480E94FFF72BF908B1FEF7F1FA7F
:101D10000348FFF75DFC12B010BD0000002C01402D
:101D20004800002010B58CB024216846FEF74CFA1C
:101D30000024164809944FF080410A94C0E9001429
:101D40004FF6FF71C0E90241046184610320CDE9CF
:101D500000040120CDE902040A210491CDE90540E7
:101D6000CDE9074169460948FFF726FA08B1FEF7B1
:101D7000C0FA099409A905480A94FFF71BF900283D
:101D800001D0FEF7B6FA0CB010BD000090000020A4
:101D900010B58AB000242248049405940694079450
:101DA000089409940094019402941C4903940160DE
:101DB0004721C0E901144FF6FF71C0E903148461A3
:101DC000FFF72CF908B1FEF794FA4FF48050049015
:101DD00004A91348FFF782F908B1FEF78AFA104800
:101DE000FFF715FB08B1FEF784FA089408A90C4820
:101DF0000994FFF7DFF808B1FEF77BFA0120CDE97F
:101E0000004002940822694605480394FFF76DFAE2
:101E1000002801D0FEF76DFA0AB010BD00040040A2
:101E2000D800002010B58CB024216846FEF7CCF90C
:101E300000241548099413490A94C0E900144FF688
:101E4000FF71C0E90241046184610120CDE9000411
:101E5000CDE902040494CDE90540079469460A4897
:101E60000894FFF7A9F908B1FEF743FA099409A904
:101E700005480A94FFF79EF8002801D0FEF739FACA
:101E80000CB010BD00080040200100200C4810B527
:101E90000A4901604FF4E1314160002181600C2268
:101EA000C160C0E904128161C161FFF79BFD002898
:101EB00003D0BDE81040FEF71CBA10BD0038014049
:101EC000680100200C4810B50A4901604FF4E13167
:101ED0004160002181600C22C160C0E9041281616F
:101EE000C161FFF77FFD002803D0BDE81040FEF779
:101EF00000BA10BD00480040B0010020FEE7FEE738
:101F000070477047FEF7B2BC30B593B028216846E1
:101F1000FEF75AF914210AA8FEF756F90025012008
:101F20000F9510951195010412958DE823000490EA
:101F30004FF4E010CDE90810022407946846FEF73C
:101F40007DFE08B172B6FEE70AA90F2081E83100D4
:101F50004FF48060CDE90D0502210AA8FEF792FD3D
:101F600008B172B6FEE74FF4004011900F940FA82D
:101F7000FEF712FD002801D072B6FEE713B030BDA7
:101F8000704700000148FFF770BA0000D800002039
:101F9000F0B50268164B174C174D4FF0804798422A
:101FA00005D0B84203D0A04201D0A84203D122F00C
:101FB00070064A683243984205D0B84203D0A04226
:101FC00001D0A84203D122F44074CA6822434C696C
:101FD00022F08002224302608A68C2620A6882623A
:101FE000984201D10969016301214161F0BD0000FE
:101FF000002C0140000400400008004010B5846837
:1020000042EA032224F47F440A432243826010BD43
:10201000826822F070020A4342F007018160704733
:1020200030B5036A026A22F00102026242688469E2
:1020300024F073050C682C4323F002058B682B43B6
:102040000A4DA8420BD123F00805CB6822F4407258
:102050002B434D6923F0040315438A692A434260E8
:10206000846149684163036230BD0000002C014077
:1020700030B5026A036A23F010030362436884697F
:102080000D6824F4E64444EA05248D6822F0200219
:1020900042EA05120B4DA8420ED1CD6822F0800213
:1020A00042EA05124D6923F4406343EA85038D69D2
:1020B00022F0400243EA85034360846149688163FA
:1020C000026230BD002C014030B5036A026A22F47E
:1020D000807202624268C46923F4007324F07305BD
:1020E0000C682C438D6843EA05230C4DA8420ED1A1
:1020F000CD6823F4006343EA05234D6922F440527E
:1021000042EA05128D6923F4806342EA05124260B7
:10211000C4614968C163036230BD0000002C014006
:1021200030B5046A026A22F4805202624268C369CE
:102130000D6823F4E64343EA05238D6824F4005434
:1021400044EA0534064DA84204D14D6922F4804288
:1021500042EA85124260C36149680164046230BD8D
:10216000002C014010B5036A046A24F001040462E3
:10217000846924F0F00444EA021423F00A020A43BA
:102180008461026210BD000070B5056A046A24F023
:102190000104046284690F4EB04208D0B0F1804F50
:1021A00005D00D4EB04202D00C4EB04203D124F007
:1021B0000304144301E044F001041A0724F0F0047E
:1021C00044EA126225F00A0301F00A011943826110
:1021D000016270BD002C0140000400400008004076
:1021E00010B5036A046A24F010040462846923F0C1
:1021F000A00324F4704444EA023243EA01118261EC
:10220000016210BD30B5046A056A25F0100505624B
:10221000856925F4407545EA022222F470454FF69F
:10222000FF7202EA033224F0A0032A43A02404EA46
:10223000011119438261016230BD10B5406A00216D
:10224000C185C184FFF796FA10BD01680C3151E8D1
:10225000002F22F4907241E80023002BF5D1016891
:10226000143151E8002F22F0010241E80023002B35
:10227000F5D1016B012909D101680C3151E8002F1A
:1022800022F0100241E80023002BF5D1202180F834
:10229000421000210163704708B590F842102229CE
:1022A00001D0022008BD82684FF480539A4201D1C8
:1022B000016921B1816A9A421BD04AB10AE00268E1
:1022C000816A5268C2F308020A80816A891C08E0A8
:1022D000026972B10268526802F07F020A70816A74
:1022E000491C8162C18D491E0904090CC18503D0B6
:1022F0001BE002685268F1E70168CA6822F0200218
:10230000CA600168CA6822F48072CA6001684A69BA
:1023100022F001024A61202180F84210002141632D
:10232000026B012A03D0FFF7F7FB002008BD016311
:1023300001680C3151E8002F22F0100241E800231F
:10234000002BF5D101680A68D20602D50A684968EF
:102350000091818DFFF70DFAE7E7000070B50446A4
:1023600000680169E26821F440511143016121696B
:10237000A0680843616908432168CA6841F20C6398
:102380009A430243CA6020684169A26921F44071FE
:10239000114341611E492068884202D1FEF718FCB2
:1023A00001E0FEF705FC00EBC00101EB00126068E4
:1023B00064218000B2FBF0F3B3FBF1F36FF0180679
:1023C0007343B2FBF0F5B2FBF0F605EB8305322365
:1023D00003EB0515B5FBF1F5B6FBF1F605F0F005DD
:1023E00005EB0615B2FBF0F6B2FBF0F0B0FBF1F036
:1023F0006FF01802504306EB800003EB0010B0FBB7
:10240000F1F0216800F00F002844886070BD0000E2
:10241000003801400148FFF7AFB90000B0010020CB
:10242000FEE70907090E002804DB00F1E02080F830
:102430000014704700F00F0000F1E02080F8141D38
:102440007047FEF71BFAFFF75FFDFFF791FBFFF701
:1024500067FBFFF70FFCFFF765FCFFF799FCFFF741
:10246000E1FCFFF713FDFFF72DFDFEE7010202037C
:102470000405060708090A0B0C0D0E0F10100000CA
:102480000000000000000102030406070809000024
:102490000000010203040000B8240008000000202E
:1024A0001800000028010008D024000818000020AF
:1024B0004008000044010008010000001000000076
:1024C000000000000024F4000000000000000000F4
:04000005080000ED02
:00000001FF
