:020000040800F2
:10000000A806002089010008830E0008BD0D000825
:10001000810E0008E7020008070F0008000000003A
:10002000000000000000000000000000870E000833
:10003000E902000800000000850E0008890E000893
:10004000A3010008A3010008A3010008A301000800
:10005000A3010008A3010008A3010008A3010008F0
:10006000A3010008A3010008A3010008A3010008E0
:10007000A3010008A3010008A3010008A3010008D0
:10008000A3010008A3010008A3010008A3010008C0
:10009000A3010008A3010008A3010008A3010008B0
:1000A000A3010008A3010008A3010008A3010008A0
:1000B000A3010008A3010008A3010008A301000890
:1000C000A3010008A3010008A3010008A301000880
:1000D000A3010008A3010008A3010008A301000870
:1000E000A3010008A3010008A301000800F002F822
:1000F00000F03AF80AA090E8000C82448344AAF188
:100100000107DA4501D100F02FF8AFF2090EBAE885
:100110000F0013F0010F18BFFB1A43F0010318473B
:100120001C0E00003C0E0000103A24BF78C878C1B5
:10013000FAD8520724BF30C830C144BF04680C60ED
:10014000704700000023002400250026103A28BF35
:1001500078C1FBD8520728BF30C148BF0B60704739
:100160001FB51FBD10B510BD00F058F81146FFF7C0
:10017000F7FF00F0C9FE00F076F803B4FFF7F2FFD6
:1001800003BC00F07DF8000009488047094800479B
:10019000FEE7FEE7FEE7FEE7FEE7FEE7FEE7FEE737
:1001A000FEE7FEE704480549054A064B7047000094
:1001B000050F0008ED000008A8000020A806002098
:1001C000A8020020A80200204FF0000200B513464C
:1001D00094469646203922BFA0E80C50A0E80C5067
:1001E000B1F12001BFF4F7AF090728BFA0E80C5018
:1001F00048BF0CC05DF804EB890028BF40F8042B11
:1002000008BF704748BF20F8022B11F0804F18BF7D
:1002100000F8012B7047704770477047754600F033
:100220002BF8AE4605006946534620F00700854688
:1002300018B020B5FFF7B6FFBDE820404FF000062C
:100240004FF000074FF000084FF0000B21F00701BE
:10025000AC46ACE8C009ACE8C009ACE8C009ACE801
:10026000C0098D46704710B50446AFF300802046A4
:10027000BDE81040FFF781BF0048704748000020EC
:1002800001491820ABBEFEE72600020070470000BF
:1002900070B5044600688168C943C90717D18168F1
:1002A00021F00101816000F051FA05460AE000BF2B
:1002B00000F04CFA401B022804D920688068C04333
:1002C000C00706D020688068C043C007F0D0002077
:1002D00070BDA06A40F01000A062E06A40F001002A
:1002E000E062012070BDFEE7704772B6FEE70000D5
:1002F000F8B50024009490F824202546012A12D055
:10030000012280F824204A681F23072A0DD206689C
:10031000776B521E02EB820293409F430B6893401F
:100320001F43776319E00220F8BD06680D2A0AD240
:10033000376BD21F02EB820293409F430B689340BE
:100340001F43376309E0F76A0D3A02EB82029340DC
:100350009F430B6893401F43F7620A6807230668B0
:100360000A2A0AD3F7680A3A02EB420293409F43F3
:100370008B6893401F43F76008E0376902EB420245
:1003800093409F438B6893401F4337610A68102A4C
:1003900001D0112A20D1124B02689A4217D19368DA
:1003A0001B0219D4936843F4000393600968102971
:1003B00012D10C490C4A0968B1FBF2F101EB810141
:1003C000490000E0491E00910029FBD104E0816A48
:1003D00041F020018162012480F824502046F8BDBC
:1003E000002401400C00002040420F002DE9F041A4
:1003F0004FF0000704003D467ED0A06A002628B9D1
:10040000E66284F82460204600F07EF82046FFF77C
:100410003FFFA16AC90600D420B1A06A40F01000D5
:10042000A06269E0A16A21F4885141F00201A16251
:100430006268E169237B0A4347EA43010A43A168F2
:100440004FF48077B94209D0012907D05FF000014D
:1004500094F814C0BCF1010F02D00AE03946F7E766
:10046000F3B1A36A43F02003A362E36A43F00103FC
:10047000E3622368D3F804C02CF4694C4CEA010C05
:10048000C3F804C021688B68DFF870C003EA0C036E
:1004900013438B60A168B9420BD0012909D00CE04D
:1004A000DFF85CC0A3690CEB43330B4343F40061FA
:1004B000DFE7218A0D05A5F580152168CB6A23F4B5
:1004C00070032B43CB62216889680E4B194091421F
:1004D00008D1E662A16A21F0020141F00101A162A6
:1004E000BDE8F081A06A20F0020040F01000A06298
:1004F000E06A40F00100E0620120F1E7FDF7E1FF72
:1005000000E0FFFFFE0E1FFF00B585B00021009147
:1005100001910291039100680E49884218D10E485A
:10052000816941F400718161816901F40071049174
:10053000816941F0040181618069694600F004002D
:1005400004904020009003200190044800F008F837
:1005500005B000BD00240140001002400008014029
:100560002DE9F84FDFF8B8910024A9F1040B2346D8
:100570000F2709F1040AABF1040EC9E00125A540DB
:100580002A40AA427DD1674ED1F804C0ACEB0608E0
:10059000B44532D014DCBCF1030F3AD009DCBCF115
:1005A000000F2AD0BCF1010F1CD0BCF1020F31D1D9
:1005B0001DE0BCF1110F17D0BCF1120F2AD119E0C8
:1005C000B8F5881F19D006DCB8F5803F15D0B8F50E
:1005D000801F1FD111E0B8F5001F0ED0B8F5041F21
:1005E00018D10AE0CB6815E0CB681B1D12E0CB6880
:1005F00008330FE0CB680C330CE08B682BB1012B78
:100600004FF0080303D0456104E0042302E00561D4
:1006100000E00023FF2A01D8064601E000F10406AD
:100620004FEA840501D9A5F12005D6F8008007FA24
:1006300005FC28EA0C0803FA05F548EA0508C6F89F
:1006400000804D68ED0062D5374DAE6946F0010679
:10065000AE61AD6924F0030605F001050095334D48
:1006600006EB050CDCF80850A607360F07FA06F86B
:1006700025EA0805DFF8B880404503D14FF00008AF
:1006800017E044E0DFF8AC80404502D14FF00108AC
:100690000FE0DFF8A480404502D14FF0020808E0E7
:1006A000DFF89880404502D14FF0030801E04FF099
:1006B000040808FA06F848EA0508CCF808804D68EE
:1006C000D9F80060ED024D4601D5164300E096438F
:1006D0002E604D68DAF80060AD02554601D516432C
:1006E00000E096432E604D68DBF80060AD035D4688
:1006F00001D5164300E096432E604D68DEF8006099
:10070000ED03754601D5164300E096432E60641C48
:100710000D682A46E5407FF431AFBDE8F88F000050
:1007200008040140000011100010024000000140C8
:1007300000080140000C014000100140001401407D
:100740000AB1016170470904FBE7000010B500F031
:100750007FF94FF47A71B0FBF1F002494968B1FBBF
:10076000F0F010BD001000E00248816802781144EA
:100770008160704700000020074810B5016841F013
:1007800010010160032000F045F80F2000F006F88A
:1007900000F022F8002010BD002002400A4810B5E9
:1007A000016841F0807101600848002141600168E2
:1007B00041F00101016000F04BF90549B0FBF1F097
:1007C00004494860002010BDFCED00E0001000E08E
:1007D00040420F00100000200C4808B5816941F02C
:1007E00001018161816901F001010091C16941F05C
:1007F0008051C161C06900F0805000900448416898
:1008000021F0E06141F00071416008BD001002403C
:1008100000000140064900F0070208684FF6FF0398
:10082000184040EA0220034A104308607047000065
:100830000CED00E00000FA052DE9F84305460078CC
:10084000354CC00754D0E0690026C00008D4E069E8
:1008500040F08050E061E069012600F08050009097
:100860002E480168C90512D40168804641F48071A0
:100870000160FFF76BFF074605E000BFFFF766FF6B
:10088000C01B642823D8D8F80000C005F6D5206A1C
:1008900010F4407021D0A98801F4407181421CD02D
:1008A000206A1F49012220F440700A6000220A6079
:1008B0002062C00711D0FFF749FF074641F2883890
:1008C00008E000BFFFF742FFC11B414502D90320EA
:1008D000BDE8F883206A8007F4D5206A696820F4AF
:1008E0004070084320621EB1E06920F08050E06152
:1008F0002878800705D56068A96820F4404008433F
:1009000060602878C00605D56068E96820F480003A
:10091000084360600020DBE70010024000700040E8
:10092000400442422DE9F0470F46050061D0434E96
:10093000306800F00700B84209D2306820F00700A4
:1009400038433060306800F00700B84251D1286861
:100950003B4C810712D5400703D5606840F4E06046
:1009600060602878000703D5606840F460506060DC
:100970006068A96820F0F000084360602878C0072C
:1009800028D06868012810D02168022810D0890773
:1009900000292EDA616821F0030101436160FFF74D
:1009A000D5FE804641F288390DE021688903EFE7E2
:1009B0008901EDE7FFF7CAFEA0EB0801494502D91E
:1009C0000320BDE8F0876068696800F00C00B0EBB8
:1009D000810FEFD1306800F00700B8420BD93068C2
:1009E00020F0070038433060306800F00700B8425C
:1009F00001D00120E5E72878400705D56068E9685F
:100A000020F4E060084360602878000706D560683D
:100A1000296920F4605040EAC100606000F018F8D5
:100A20006168084AC1F30311515CC8400649086077
:100A300006480068FFF7B2FE0020C2E7002002402F
:100A4000001002402C0F00080C00002004000020C1
:100A50000E4A51680E4801F00C03042B11D0082BEC
:100A60000FD10C48C1F38343C903C05C0AD5516858
:100A7000084AC1F34041921E515C054A5043B0FB05
:100A8000F1F07047044948437047000000100240ED
:100A900000127A001C0F000800093D002DE9F84FF4
:100AA000040070D02078C04DC00749D06868C0F3FA
:100AB0008100012807D06868C0F38100022809D1AD
:100AC0006868C00306D52868800339D560680028A7
:100AD000E7D035E06068B0F5803F0BD010B1B0F5DD
:100AE000A02F11D0286820F480302860286820F4D6
:100AF000802002E0286840F480302860606890B16F
:100B0000FFF724FE06460AE0286840F480202860AB
:100B1000F0E700BFFFF71AFE801B642873D828682F
:100B20008003F7D50CE0FFF711FE064605E000BF95
:100B3000FFF70CFE801B6428F0D828688003F7D4E8
:100B400020789A4E80074FF001094FF0000839D500
:100B5000686810F00C0F07D06868C0F381000228A5
:100B600009D16868C00306D42868800714D52069B5
:100B7000012808D110E02069B0B1C6F80090FFF755
:100B8000E5FD074605E00AE1FFF7E0FDC01B02288E
:100B9000C4D828688007F7D52868616920F0F80074
:100BA00040EAC10028600DE0C6F80080FFF7CEFDE6
:100BB000074604E0FFF7CAFDC01B022823D82868B7
:100BC0008007F7D4207800072CD57948A169D9B1DE
:100BD000C0F80090FFF7BAFD074604E0FFF7B6FD46
:100BE000C01B02280FD8686A8007F7D571484FF4F8
:100BF000FA510068B0FBF1F0009000BF0098411E70
:100C00000091FAD20EE080E0C0F80080FFF79EFD70
:100C1000074604E0FFF79AFDC01B022875D8686AF2
:100C20008007F7D42078400760D5E8690027C00026
:100C300008D4E86940F08050E861E869012700F0D5
:100C4000805000905C480168C90513D40168834650
:100C500041F480710160FFF779FD824606E000BF34
:100C6000FFF774FDA0EB0A0064284ED8DBF8000003
:100C7000C005F5D5E06801280AD008B1052813D0D1
:100C8000286A20F001002862286A20F0040002E0AF
:100C9000286A40F001002862E06841F2883B98B180
:100CA000FFF754FD82460BE0286A40F004002862FA
:100CB000EEE700BFFFF74AFDA0EB0A0159455AD8FD
:100CC000286A8007F6D50CE0FFF740FD824605E074
:100CD000FFF73CFDA0EB0A0159454CD8286A800774
:100CE000F6D41FB1E86920F08050E861E06988B36C
:100CF0006968C1F38101022944D00228C6F86080E6
:100D000004D0FFF723FD044638E034E0FFF71EFD72
:100D1000074604E0FFF71AFDC01B02282BD82868FD
:100D20008001F7D4206AB0F5803F05D16868A168DA
:100D300020F4003008436860D4E90801084369687A
:100D400021F4741108436860C6F86090FFF7FEFC58
:100D5000044606E025E000BFFFF7F8FC001B022870
:100D600009D828688001F7D51BE000BFFFF7EEFC2B
:100D7000001B022802D90320BDE8F88F28688001F3
:100D8000F4D40EE00128F7D06868226A00F48031BC
:100D9000914204D1616A00F47010884201D00120B0
:100DA000EAE70020E8E700000010024000004242AD
:100DB000800442420C00002000700040FEE700006A
:100DC0003EB5002411480094019402940E498460B9
:100DD000016004730475012505614FF460214460CE
:100DE000C161FFF703FB08B1FFF77FFA0620CDE9E9
:100DF0000005694602940548FFF77AFA002801D0F9
:100E0000FFF773FA3EBD00000024014018000020E7
:100E100070B586B00024184800940194029403949D
:100E2000816941F020018161816901F02001049113
:100E3000816941F004018161816901F0040104913B
:100E4000816941F00801816180690C4E00F0080061
:100E50004FF45E750490012229463046FFF770FC7E
:100E600001200095CDE90104032003906946304636
:100E7000FFF776FB06B070BD00100240000C014089
:100E8000FEE7FEE770477047FFF76EBC30B593B0E2
:100E900028216846FFF798F914210AA8FFF794F96A
:100EA000002501200F9510951195010412958DE8EC
:100EB000230004904FF4E010CDE9081002240794B9
:100EC0006846FFF7EBFD08B172B6FEE70AA90F20EE
:100ED00081E831004FF48060CDE90D0502210AA8B8
:100EE000FFF720FD08B172B6FEE74FF40040119005
:100EF0000F940FA8FFF7A0FC002801D072B6FEE700
:100F000013B030BD7047FEE7FFF736FCFFF7BEFFBA
:100F1000FFF77EFFFFF754FFFEE70102020304051F
:100F2000060708090A0B0C0D0E0F10100000000038
:100F30000000000001020304060708095C0F000816
:100F4000000000201800000028010008740F0008AD
:100F50001800002090060000440100080100000075
:100F600010000000000000000024F4000000000059
:040F7000000000007D
:04000005080000ED02
:00000001FF
